{
	"Addfive.sol": {
		"addFive": {
			"abi": [
				{
					"inputs": [
						{
							"internalType": "uint256",
							"name": "_newNumber",
							"type": "uint256"
						}
					],
					"name": "Store",
					"outputs": [],
					"stateMutability": "nonpayable",
					"type": "function"
				},
				{
					"inputs": [
						{
							"internalType": "string",
							"name": "_name",
							"type": "string"
						},
						{
							"internalType": "uint256",
							"name": "_favNumber",
							"type": "uint256"
						}
					],
					"name": "addPerson",
					"outputs": [],
					"stateMutability": "nonpayable",
					"type": "function"
				},
				{
					"inputs": [],
					"name": "favoriteNumber",
					"outputs": [
						{
							"internalType": "int256",
							"name": "",
							"type": "int256"
						}
					],
					"stateMutability": "view",
					"type": "function"
				},
				{
					"inputs": [
						{
							"internalType": "uint256",
							"name": "",
							"type": "uint256"
						}
					],
					"name": "limitedPeople",
					"outputs": [
						{
							"internalType": "uint256",
							"name": "favoriteNumber",
							"type": "uint256"
						},
						{
							"internalType": "string",
							"name": "name",
							"type": "string"
						}
					],
					"stateMutability": "view",
					"type": "function"
				},
				{
					"inputs": [
						{
							"internalType": "string",
							"name": "",
							"type": "string"
						}
					],
					"name": "nameToFavoriteNumber",
					"outputs": [
						{
							"internalType": "uint256",
							"name": "",
							"type": "uint256"
						}
					],
					"stateMutability": "view",
					"type": "function"
				},
				{
					"inputs": [
						{
							"internalType": "uint256",
							"name": "",
							"type": "uint256"
						}
					],
					"name": "people",
					"outputs": [
						{
							"internalType": "uint256",
							"name": "favoriteNumber",
							"type": "uint256"
						},
						{
							"internalType": "string",
							"name": "name",
							"type": "string"
						}
					],
					"stateMutability": "view",
					"type": "function"
				},
				{
					"inputs": [],
					"name": "retrieve",
					"outputs": [
						{
							"internalType": "int256",
							"name": "",
							"type": "int256"
						}
					],
					"stateMutability": "view",
					"type": "function"
				}
			],
			"devdoc": {
				"kind": "dev",
				"methods": {},
				"version": 1
			},
			"evm": {
				"assembly": "    /* \"Addfive.sol\":156:415  contract addFive is SimpleStorage{... */\n  mstore(0x40, 0x80)\n    /* \"SimpleStorage.sol\":112:116  true */\n  0x01\n    /* \"SimpleStorage.sol\":87:116  bool hasFavoriteNumber = true */\n  0x00\n  exp(0x0100, 0x00)\n  dup2\n  sload\n  dup2\n  0xff\n  mul\n  not\n  and\n  swap1\n  dup4\n  iszero\n  iszero\n  mul\n  or\n  swap1\n  sstore\n  pop\n    /* \"SimpleStorage.sol\":153:156  -88 */\n  0xffffffffffffffffffffffffffffffffffffffffffffffffffffffffffffffa8\n    /* \"SimpleStorage.sol\":122:156  int256 public favoriteNumber = -88 */\n  0x01\n  sstore\n    /* \"SimpleStorage.sol\":162:205  string FavoriteNumberInTest = \"my fav is 7\" */\n  mload(0x40)\n  dup1\n  0x40\n  add\n  0x40\n  mstore\n  dup1\n  0x0b\n  dup2\n  mstore\n  0x20\n  add\n  0x6d79206661762069732037000000000000000000000000000000000000000000\n  dup2\n  mstore\n  pop\n  0x02\n  swap1\n  dup2\n  tag_1\n  swap2\n  swap1\n  tag_2\n  jump\t// in\ntag_1:\n  pop\n    /* \"SimpleStorage.sol\":231:273  0xA5c7f43162333963149E5AC357917b37974A41f6 */\n  0xa5c7f43162333963149e5ac357917b37974a41f6\n    /* \"SimpleStorage.sol\":211:273  address myAddress = 0xA5c7f43162333963149E5AC357917b37974A41f6 */\n  0x03\n  exp(0x0100, 0x00)\n  dup2\n  sload\n  dup2\n  0xffffffffffffffffffffffffffffffffffffffff\n  mul\n  not\n  and\n  swap1\n  dup4\n  0xffffffffffffffffffffffffffffffffffffffff\n  and\n  mul\n  or\n  swap1\n  sstore\n  pop\n    /* \"Addfive.sol\":156:415  contract addFive is SimpleStorage{... */\n  callvalue\n  dup1\n  iszero\n  tag_3\n  jumpi\n  revert(0x00, 0x00)\ntag_3:\n  pop\n  jump(tag_4)\n    /* \"#utility.yul\":7:106   */\ntag_5:\n    /* \"#utility.yul\":59:65   */\n  0x00\n    /* \"#utility.yul\":93:98   */\n  dup2\n    /* \"#utility.yul\":87:99   */\n  mload\n    /* \"#utility.yul\":77:99   */\n  swap1\n  pop\n    /* \"#utility.yul\":7:106   */\n  swap2\n  swap1\n  pop\n  jump\t// out\n    /* \"#utility.yul\":112:292   */\ntag_6:\n    /* \"#utility.yul\":160:237   */\n  0x4e487b7100000000000000000000000000000000000000000000000000000000\n    /* \"#utility.yul\":157:158   */\n  0x00\n    /* \"#utility.yul\":150:238   */\n  mstore\n    /* \"#utility.yul\":257:261   */\n  0x41\n    /* \"#utility.yul\":254:255   */\n  0x04\n    /* \"#utility.yul\":247:262   */\n  mstore\n    /* \"#utility.yul\":281:285   */\n  0x24\n    /* \"#utility.yul\":278:279   */\n  0x00\n    /* \"#utility.yul\":271:286   */\n  revert\n    /* \"#utility.yul\":298:478   */\ntag_7:\n    /* \"#utility.yul\":346:423   */\n  0x4e487b7100000000000000000000000000000000000000000000000000000000\n    /* \"#utility.yul\":343:344   */\n  0x00\n    /* \"#utility.yul\":336:424   */\n  mstore\n    /* \"#utility.yul\":443:447   */\n  0x22\n    /* \"#utility.yul\":440:441   */\n  0x04\n    /* \"#utility.yul\":433:448   */\n  mstore\n    /* \"#utility.yul\":467:471   */\n  0x24\n    /* \"#utility.yul\":464:465   */\n  0x00\n    /* \"#utility.yul\":457:472   */\n  revert\n    /* \"#utility.yul\":484:804   */\ntag_8:\n    /* \"#utility.yul\":528:534   */\n  0x00\n    /* \"#utility.yul\":565:566   */\n  0x02\n    /* \"#utility.yul\":559:563   */\n  dup3\n    /* \"#utility.yul\":555:567   */\n  div\n    /* \"#utility.yul\":545:567   */\n  swap1\n  pop\n    /* \"#utility.yul\":612:613   */\n  0x01\n    /* \"#utility.yul\":606:610   */\n  dup3\n    /* \"#utility.yul\":602:614   */\n  and\n    /* \"#utility.yul\":633:651   */\n  dup1\n    /* \"#utility.yul\":623:704   */\n  tag_30\n  jumpi\n    /* \"#utility.yul\":689:693   */\n  0x7f\n    /* \"#utility.yul\":681:687   */\n  dup3\n    /* \"#utility.yul\":677:694   */\n  and\n    /* \"#utility.yul\":667:694   */\n  swap2\n  pop\n    /* \"#utility.yul\":623:704   */\ntag_30:\n    /* \"#utility.yul\":751:753   */\n  0x20\n    /* \"#utility.yul\":743:749   */\n  dup3\n    /* \"#utility.yul\":740:754   */\n  lt\n    /* \"#utility.yul\":720:738   */\n  dup2\n    /* \"#utility.yul\":717:755   */\n  sub\n    /* \"#utility.yul\":714:798   */\n  tag_31\n  jumpi\n    /* \"#utility.yul\":770:788   */\n  tag_32\n  tag_7\n  jump\t// in\ntag_32:\n    /* \"#utility.yul\":714:798   */\ntag_31:\n    /* \"#utility.yul\":535:804   */\n  pop\n    /* \"#utility.yul\":484:804   */\n  swap2\n  swap1\n  pop\n  jump\t// out\n    /* \"#utility.yul\":810:951   */\ntag_9:\n    /* \"#utility.yul\":859:863   */\n  0x00\n    /* \"#utility.yul\":882:885   */\n  dup2\n    /* \"#utility.yul\":874:885   */\n  swap1\n  pop\n    /* \"#utility.yul\":905:908   */\n  dup2\n    /* \"#utility.yul\":902:903   */\n  0x00\n    /* \"#utility.yul\":895:909   */\n  mstore\n    /* \"#utility.yul\":939:943   */\n  0x20\n    /* \"#utility.yul\":936:937   */\n  0x00\n    /* \"#utility.yul\":926:944   */\n  keccak256\n    /* \"#utility.yul\":918:944   */\n  swap1\n  pop\n    /* \"#utility.yul\":810:951   */\n  swap2\n  swap1\n  pop\n  jump\t// out\n    /* \"#utility.yul\":957:1050   */\ntag_10:\n    /* \"#utility.yul\":994:1000   */\n  0x00\n    /* \"#utility.yul\":1041:1043   */\n  0x20\n    /* \"#utility.yul\":1036:1038   */\n  0x1f\n    /* \"#utility.yul\":1029:1034   */\n  dup4\n    /* \"#utility.yul\":1025:1039   */\n  add\n    /* \"#utility.yul\":1021:1044   */\n  div\n    /* \"#utility.yul\":1011:1044   */\n  swap1\n  pop\n    /* \"#utility.yul\":957:1050   */\n  swap2\n  swap1\n  pop\n  jump\t// out\n    /* \"#utility.yul\":1056:1163   */\ntag_11:\n    /* \"#utility.yul\":1100:1108   */\n  0x00\n    /* \"#utility.yul\":1150:1155   */\n  dup3\n    /* \"#utility.yul\":1144:1148   */\n  dup3\n    /* \"#utility.yul\":1140:1156   */\n  shl\n    /* \"#utility.yul\":1119:1156   */\n  swap1\n  pop\n    /* \"#utility.yul\":1056:1163   */\n  swap3\n  swap2\n  pop\n  pop\n  jump\t// out\n    /* \"#utility.yul\":1169:1562   */\ntag_12:\n    /* \"#utility.yul\":1238:1244   */\n  0x00\n    /* \"#utility.yul\":1288:1289   */\n  0x08\n    /* \"#utility.yul\":1276:1286   */\n  dup4\n    /* \"#utility.yul\":1272:1290   */\n  mul\n    /* \"#utility.yul\":1311:1408   */\n  tag_37\n    /* \"#utility.yul\":1341:1407   */\n  0xffffffffffffffffffffffffffffffffffffffffffffffffffffffffffffffff\n    /* \"#utility.yul\":1330:1339   */\n  dup3\n    /* \"#utility.yul\":1311:1408   */\n  tag_11\n  jump\t// in\ntag_37:\n    /* \"#utility.yul\":1429:1468   */\n  tag_38\n    /* \"#utility.yul\":1459:1467   */\n  dup7\n    /* \"#utility.yul\":1448:1457   */\n  dup4\n    /* \"#utility.yul\":1429:1468   */\n  tag_11\n  jump\t// in\ntag_38:\n    /* \"#utility.yul\":1417:1468   */\n  swap6\n  pop\n    /* \"#utility.yul\":1501:1505   */\n  dup1\n    /* \"#utility.yul\":1497:1506   */\n  not\n    /* \"#utility.yul\":1490:1495   */\n  dup5\n    /* \"#utility.yul\":1486:1507   */\n  and\n    /* \"#utility.yul\":1477:1507   */\n  swap4\n  pop\n    /* \"#utility.yul\":1550:1554   */\n  dup1\n    /* \"#utility.yul\":1540:1548   */\n  dup7\n    /* \"#utility.yul\":1536:1555   */\n  and\n    /* \"#utility.yul\":1529:1534   */\n  dup5\n    /* \"#utility.yul\":1526:1556   */\n  or\n    /* \"#utility.yul\":1516:1556   */\n  swap3\n  pop\n    /* \"#utility.yul\":1245:1562   */\n  pop\n  pop\n    /* \"#utility.yul\":1169:1562   */\n  swap4\n  swap3\n  pop\n  pop\n  pop\n  jump\t// out\n    /* \"#utility.yul\":1568:1645   */\ntag_13:\n    /* \"#utility.yul\":1605:1612   */\n  0x00\n    /* \"#utility.yul\":1634:1639   */\n  dup2\n    /* \"#utility.yul\":1623:1639   */\n  swap1\n  pop\n    /* \"#utility.yul\":1568:1645   */\n  swap2\n  swap1\n  pop\n  jump\t// out\n    /* \"#utility.yul\":1651:1711   */\ntag_14:\n    /* \"#utility.yul\":1679:1682   */\n  0x00\n    /* \"#utility.yul\":1700:1705   */\n  dup2\n    /* \"#utility.yul\":1693:1705   */\n  swap1\n  pop\n    /* \"#utility.yul\":1651:1711   */\n  swap2\n  swap1\n  pop\n  jump\t// out\n    /* \"#utility.yul\":1717:1859   */\ntag_15:\n    /* \"#utility.yul\":1767:1776   */\n  0x00\n    /* \"#utility.yul\":1800:1853   */\n  tag_42\n    /* \"#utility.yul\":1818:1852   */\n  tag_43\n    /* \"#utility.yul\":1827:1851   */\n  tag_44\n    /* \"#utility.yul\":1845:1850   */\n  dup5\n    /* \"#utility.yul\":1827:1851   */\n  tag_13\n  jump\t// in\ntag_44:\n    /* \"#utility.yul\":1818:1852   */\n  tag_14\n  jump\t// in\ntag_43:\n    /* \"#utility.yul\":1800:1853   */\n  tag_13\n  jump\t// in\ntag_42:\n    /* \"#utility.yul\":1787:1853   */\n  swap1\n  pop\n    /* \"#utility.yul\":1717:1859   */\n  swap2\n  swap1\n  pop\n  jump\t// out\n    /* \"#utility.yul\":1865:1940   */\ntag_16:\n    /* \"#utility.yul\":1908:1911   */\n  0x00\n    /* \"#utility.yul\":1929:1934   */\n  dup2\n    /* \"#utility.yul\":1922:1934   */\n  swap1\n  pop\n    /* \"#utility.yul\":1865:1940   */\n  swap2\n  swap1\n  pop\n  jump\t// out\n    /* \"#utility.yul\":1946:2215   */\ntag_17:\n    /* \"#utility.yul\":2056:2095   */\n  tag_47\n    /* \"#utility.yul\":2087:2094   */\n  dup4\n    /* \"#utility.yul\":2056:2095   */\n  tag_15\n  jump\t// in\ntag_47:\n    /* \"#utility.yul\":2117:2208   */\n  tag_48\n    /* \"#utility.yul\":2166:2207   */\n  tag_49\n    /* \"#utility.yul\":2190:2206   */\n  dup3\n    /* \"#utility.yul\":2166:2207   */\n  tag_16\n  jump\t// in\ntag_49:\n    /* \"#utility.yul\":2158:2164   */\n  dup5\n    /* \"#utility.yul\":2151:2155   */\n  dup5\n    /* \"#utility.yul\":2145:2156   */\n  sload\n    /* \"#utility.yul\":2117:2208   */\n  tag_12\n  jump\t// in\ntag_48:\n    /* \"#utility.yul\":2111:2115   */\n  dup3\n    /* \"#utility.yul\":2104:2209   */\n  sstore\n    /* \"#utility.yul\":2022:2215   */\n  pop\n    /* \"#utility.yul\":1946:2215   */\n  pop\n  pop\n  pop\n  jump\t// out\n    /* \"#utility.yul\":2221:2294   */\ntag_18:\n    /* \"#utility.yul\":2266:2269   */\n  0x00\n    /* \"#utility.yul\":2287:2288   */\n  0x00\n    /* \"#utility.yul\":2280:2288   */\n  swap1\n  pop\n    /* \"#utility.yul\":2221:2294   */\n  swap1\n  jump\t// out\n    /* \"#utility.yul\":2300:2489   */\ntag_19:\n    /* \"#utility.yul\":2377:2409   */\n  tag_52\n  tag_18\n  jump\t// in\ntag_52:\n    /* \"#utility.yul\":2418:2483   */\n  tag_53\n    /* \"#utility.yul\":2476:2482   */\n  dup2\n    /* \"#utility.yul\":2468:2474   */\n  dup5\n    /* \"#utility.yul\":2462:2466   */\n  dup5\n    /* \"#utility.yul\":2418:2483   */\n  tag_17\n  jump\t// in\ntag_53:\n    /* \"#utility.yul\":2353:2489   */\n  pop\n    /* \"#utility.yul\":2300:2489   */\n  pop\n  pop\n  jump\t// out\n    /* \"#utility.yul\":2495:2681   */\ntag_20:\n    /* \"#utility.yul\":2555:2675   */\ntag_55:\n    /* \"#utility.yul\":2572:2575   */\n  dup2\n    /* \"#utility.yul\":2565:2570   */\n  dup2\n    /* \"#utility.yul\":2562:2576   */\n  lt\n    /* \"#utility.yul\":2555:2675   */\n  iszero\n  tag_57\n  jumpi\n    /* \"#utility.yul\":2626:2665   */\n  tag_58\n    /* \"#utility.yul\":2663:2664   */\n  0x00\n    /* \"#utility.yul\":2656:2661   */\n  dup3\n    /* \"#utility.yul\":2626:2665   */\n  tag_19\n  jump\t// in\ntag_58:\n    /* \"#utility.yul\":2599:2600   */\n  0x01\n    /* \"#utility.yul\":2592:2597   */\n  dup2\n    /* \"#utility.yul\":2588:2601   */\n  add\n    /* \"#utility.yul\":2579:2601   */\n  swap1\n  pop\n    /* \"#utility.yul\":2555:2675   */\n  jump(tag_55)\ntag_57:\n    /* \"#utility.yul\":2495:2681   */\n  pop\n  pop\n  jump\t// out\n    /* \"#utility.yul\":2687:3230   */\ntag_21:\n    /* \"#utility.yul\":2788:2790   */\n  0x1f\n    /* \"#utility.yul\":2783:2786   */\n  dup3\n    /* \"#utility.yul\":2780:2791   */\n  gt\n    /* \"#utility.yul\":2777:3223   */\n  iszero\n  tag_60\n  jumpi\n    /* \"#utility.yul\":2822:2860   */\n  tag_61\n    /* \"#utility.yul\":2854:2859   */\n  dup2\n    /* \"#utility.yul\":2822:2860   */\n  tag_9\n  jump\t// in\ntag_61:\n    /* \"#utility.yul\":2906:2935   */\n  tag_62\n    /* \"#utility.yul\":2924:2934   */\n  dup5\n    /* \"#utility.yul\":2906:2935   */\n  tag_10\n  jump\t// in\ntag_62:\n    /* \"#utility.yul\":2896:2904   */\n  dup2\n    /* \"#utility.yul\":2892:2936   */\n  add\n    /* \"#utility.yul\":3089:3091   */\n  0x20\n    /* \"#utility.yul\":3077:3087   */\n  dup6\n    /* \"#utility.yul\":3074:3092   */\n  lt\n    /* \"#utility.yul\":3071:3120   */\n  iszero\n  tag_63\n  jumpi\n    /* \"#utility.yul\":3110:3118   */\n  dup2\n    /* \"#utility.yul\":3095:3118   */\n  swap1\n  pop\n    /* \"#utility.yul\":3071:3120   */\ntag_63:\n    /* \"#utility.yul\":3133:3213   */\n  tag_64\n    /* \"#utility.yul\":3189:3211   */\n  tag_65\n    /* \"#utility.yul\":3207:3210   */\n  dup6\n    /* \"#utility.yul\":3189:3211   */\n  tag_10\n  jump\t// in\ntag_65:\n    /* \"#utility.yul\":3179:3187   */\n  dup4\n    /* \"#utility.yul\":3175:3212   */\n  add\n    /* \"#utility.yul\":3162:3173   */\n  dup3\n    /* \"#utility.yul\":3133:3213   */\n  tag_20\n  jump\t// in\ntag_64:\n    /* \"#utility.yul\":2792:3223   */\n  pop\n  pop\n    /* \"#utility.yul\":2777:3223   */\ntag_60:\n    /* \"#utility.yul\":2687:3230   */\n  pop\n  pop\n  pop\n  jump\t// out\n    /* \"#utility.yul\":3236:3353   */\ntag_22:\n    /* \"#utility.yul\":3290:3298   */\n  0x00\n    /* \"#utility.yul\":3340:3345   */\n  dup3\n    /* \"#utility.yul\":3334:3338   */\n  dup3\n    /* \"#utility.yul\":3330:3346   */\n  shr\n    /* \"#utility.yul\":3309:3346   */\n  swap1\n  pop\n    /* \"#utility.yul\":3236:3353   */\n  swap3\n  swap2\n  pop\n  pop\n  jump\t// out\n    /* \"#utility.yul\":3359:3528   */\ntag_23:\n    /* \"#utility.yul\":3403:3409   */\n  0x00\n    /* \"#utility.yul\":3436:3487   */\n  tag_68\n    /* \"#utility.yul\":3484:3485   */\n  0x00\n    /* \"#utility.yul\":3480:3486   */\n  not\n    /* \"#utility.yul\":3472:3477   */\n  dup5\n    /* \"#utility.yul\":3469:3470   */\n  0x08\n    /* \"#utility.yul\":3465:3478   */\n  mul\n    /* \"#utility.yul\":3436:3487   */\n  tag_22\n  jump\t// in\ntag_68:\n    /* \"#utility.yul\":3432:3488   */\n  not\n    /* \"#utility.yul\":3517:3521   */\n  dup1\n    /* \"#utility.yul\":3511:3515   */\n  dup4\n    /* \"#utility.yul\":3507:3522   */\n  and\n    /* \"#utility.yul\":3497:3522   */\n  swap2\n  pop\n    /* \"#utility.yul\":3410:3528   */\n  pop\n    /* \"#utility.yul\":3359:3528   */\n  swap3\n  swap2\n  pop\n  pop\n  jump\t// out\n    /* \"#utility.yul\":3533:3828   */\ntag_24:\n    /* \"#utility.yul\":3609:3613   */\n  0x00\n    /* \"#utility.yul\":3755:3784   */\n  tag_70\n    /* \"#utility.yul\":3780:3783   */\n  dup4\n    /* \"#utility.yul\":3774:3778   */\n  dup4\n    /* \"#utility.yul\":3755:3784   */\n  tag_23\n  jump\t// in\ntag_70:\n    /* \"#utility.yul\":3747:3784   */\n  swap2\n  pop\n    /* \"#utility.yul\":3817:3820   */\n  dup3\n    /* \"#utility.yul\":3814:3815   */\n  0x02\n    /* \"#utility.yul\":3810:3821   */\n  mul\n    /* \"#utility.yul\":3804:3808   */\n  dup3\n    /* \"#utility.yul\":3801:3822   */\n  or\n    /* \"#utility.yul\":3793:3822   */\n  swap1\n  pop\n    /* \"#utility.yul\":3533:3828   */\n  swap3\n  swap2\n  pop\n  pop\n  jump\t// out\n    /* \"#utility.yul\":3833:5228   */\ntag_2:\n    /* \"#utility.yul\":3950:3987   */\n  tag_72\n    /* \"#utility.yul\":3983:3986   */\n  dup3\n    /* \"#utility.yul\":3950:3987   */\n  tag_5\n  jump\t// in\ntag_72:\n    /* \"#utility.yul\":4052:4070   */\n  0xffffffffffffffff\n    /* \"#utility.yul\":4044:4050   */\n  dup2\n    /* \"#utility.yul\":4041:4071   */\n  gt\n    /* \"#utility.yul\":4038:4094   */\n  iszero\n  tag_73\n  jumpi\n    /* \"#utility.yul\":4074:4092   */\n  tag_74\n  tag_6\n  jump\t// in\ntag_74:\n    /* \"#utility.yul\":4038:4094   */\ntag_73:\n    /* \"#utility.yul\":4118:4156   */\n  tag_75\n    /* \"#utility.yul\":4150:4154   */\n  dup3\n    /* \"#utility.yul\":4144:4155   */\n  sload\n    /* \"#utility.yul\":4118:4156   */\n  tag_8\n  jump\t// in\ntag_75:\n    /* \"#utility.yul\":4203:4270   */\n  tag_76\n    /* \"#utility.yul\":4263:4269   */\n  dup3\n    /* \"#utility.yul\":4255:4261   */\n  dup3\n    /* \"#utility.yul\":4249:4253   */\n  dup6\n    /* \"#utility.yul\":4203:4270   */\n  tag_21\n  jump\t// in\ntag_76:\n    /* \"#utility.yul\":4297:4298   */\n  0x00\n    /* \"#utility.yul\":4321:4325   */\n  0x20\n    /* \"#utility.yul\":4308:4325   */\n  swap1\n  pop\n    /* \"#utility.yul\":4353:4355   */\n  0x1f\n    /* \"#utility.yul\":4345:4351   */\n  dup4\n    /* \"#utility.yul\":4342:4356   */\n  gt\n    /* \"#utility.yul\":4370:4371   */\n  0x01\n    /* \"#utility.yul\":4365:4983   */\n  dup2\n  eq\n  tag_78\n  jumpi\n    /* \"#utility.yul\":5027:5028   */\n  0x00\n    /* \"#utility.yul\":5044:5050   */\n  dup5\n    /* \"#utility.yul\":5041:5118   */\n  iszero\n  tag_79\n  jumpi\n    /* \"#utility.yul\":5093:5102   */\n  dup3\n    /* \"#utility.yul\":5088:5091   */\n  dup8\n    /* \"#utility.yul\":5084:5103   */\n  add\n    /* \"#utility.yul\":5078:5104   */\n  mload\n    /* \"#utility.yul\":5069:5104   */\n  swap1\n  pop\n    /* \"#utility.yul\":5041:5118   */\ntag_79:\n    /* \"#utility.yul\":5144:5211   */\n  tag_80\n    /* \"#utility.yul\":5204:5210   */\n  dup6\n    /* \"#utility.yul\":5197:5202   */\n  dup3\n    /* \"#utility.yul\":5144:5211   */\n  tag_24\n  jump\t// in\ntag_80:\n    /* \"#utility.yul\":5138:5142   */\n  dup7\n    /* \"#utility.yul\":5131:5212   */\n  sstore\n    /* \"#utility.yul\":5000:5222   */\n  pop\n    /* \"#utility.yul\":4335:5222   */\n  jump(tag_77)\n    /* \"#utility.yul\":4365:4983   */\ntag_78:\n    /* \"#utility.yul\":4417:4421   */\n  0x1f\n    /* \"#utility.yul\":4413:4422   */\n  not\n    /* \"#utility.yul\":4405:4411   */\n  dup5\n    /* \"#utility.yul\":4401:4423   */\n  and\n    /* \"#utility.yul\":4451:4488   */\n  tag_81\n    /* \"#utility.yul\":4483:4487   */\n  dup7\n    /* \"#utility.yul\":4451:4488   */\n  tag_9\n  jump\t// in\ntag_81:\n    /* \"#utility.yul\":4510:4511   */\n  0x00\n    /* \"#utility.yul\":4524:4732   */\ntag_82:\n    /* \"#utility.yul\":4538:4545   */\n  dup3\n    /* \"#utility.yul\":4535:4536   */\n  dup2\n    /* \"#utility.yul\":4532:4546   */\n  lt\n    /* \"#utility.yul\":4524:4732   */\n  iszero\n  tag_84\n  jumpi\n    /* \"#utility.yul\":4617:4626   */\n  dup5\n    /* \"#utility.yul\":4612:4615   */\n  dup10\n    /* \"#utility.yul\":4608:4627   */\n  add\n    /* \"#utility.yul\":4602:4628   */\n  mload\n    /* \"#utility.yul\":4594:4600   */\n  dup3\n    /* \"#utility.yul\":4587:4629   */\n  sstore\n    /* \"#utility.yul\":4668:4669   */\n  0x01\n    /* \"#utility.yul\":4660:4666   */\n  dup3\n    /* \"#utility.yul\":4656:4670   */\n  add\n    /* \"#utility.yul\":4646:4670   */\n  swap2\n  pop\n    /* \"#utility.yul\":4715:4717   */\n  0x20\n    /* \"#utility.yul\":4704:4713   */\n  dup6\n    /* \"#utility.yul\":4700:4718   */\n  add\n    /* \"#utility.yul\":4687:4718   */\n  swap5\n  pop\n    /* \"#utility.yul\":4561:4565   */\n  0x20\n    /* \"#utility.yul\":4558:4559   */\n  dup2\n    /* \"#utility.yul\":4554:4566   */\n  add\n    /* \"#utility.yul\":4549:4566   */\n  swap1\n  pop\n    /* \"#utility.yul\":4524:4732   */\n  jump(tag_82)\ntag_84:\n    /* \"#utility.yul\":4760:4766   */\n  dup7\n    /* \"#utility.yul\":4751:4758   */\n  dup4\n    /* \"#utility.yul\":4748:4767   */\n  lt\n    /* \"#utility.yul\":4745:4924   */\n  iszero\n  tag_85\n  jumpi\n    /* \"#utility.yul\":4818:4827   */\n  dup5\n    /* \"#utility.yul\":4813:4816   */\n  dup10\n    /* \"#utility.yul\":4809:4828   */\n  add\n    /* \"#utility.yul\":4803:4829   */\n  mload\n    /* \"#utility.yul\":4861:4909   */\n  tag_86\n    /* \"#utility.yul\":4903:4907   */\n  0x1f\n    /* \"#utility.yul\":4895:4901   */\n  dup10\n    /* \"#utility.yul\":4891:4908   */\n  and\n    /* \"#utility.yul\":4880:4889   */\n  dup3\n    /* \"#utility.yul\":4861:4909   */\n  tag_23\n  jump\t// in\ntag_86:\n    /* \"#utility.yul\":4853:4859   */\n  dup4\n    /* \"#utility.yul\":4846:4910   */\n  sstore\n    /* \"#utility.yul\":4768:4924   */\n  pop\n    /* \"#utility.yul\":4745:4924   */\ntag_85:\n    /* \"#utility.yul\":4970:4971   */\n  0x01\n    /* \"#utility.yul\":4966:4967   */\n  0x02\n    /* \"#utility.yul\":4958:4964   */\n  dup9\n    /* \"#utility.yul\":4954:4968   */\n  mul\n    /* \"#utility.yul\":4950:4972   */\n  add\n    /* \"#utility.yul\":4944:4948   */\n  dup9\n    /* \"#utility.yul\":4937:4973   */\n  sstore\n    /* \"#utility.yul\":4372:4983   */\n  pop\n  pop\n  pop\n    /* \"#utility.yul\":4335:5222   */\ntag_77:\n  pop\n    /* \"#utility.yul\":3925:5228   */\n  pop\n  pop\n  pop\n    /* \"#utility.yul\":3833:5228   */\n  pop\n  pop\n  jump\t// out\n    /* \"Addfive.sol\":156:415  contract addFive is SimpleStorage{... */\ntag_4:\n  dataSize(sub_0)\n  dup1\n  dataOffset(sub_0)\n  0x00\n  codecopy\n  0x00\n  return\nstop\n\nsub_0: assembly {\n        /* \"Addfive.sol\":156:415  contract addFive is SimpleStorage{... */\n      mstore(0x40, 0x80)\n      callvalue\n      dup1\n      iszero\n      tag_1\n      jumpi\n      revert(0x00, 0x00)\n    tag_1:\n      pop\n      jumpi(tag_2, lt(calldatasize, 0x04))\n      shr(0xe0, calldataload(0x00))\n      dup1\n      0x69404ebd\n      gt\n      tag_10\n      jumpi\n      dup1\n      0x69404ebd\n      eq\n      tag_6\n      jumpi\n      dup1\n      0x6f760f41\n      eq\n      tag_7\n      jumpi\n      dup1\n      0x8bab8dd5\n      eq\n      tag_8\n      jumpi\n      dup1\n      0x9e7a13ad\n      eq\n      tag_9\n      jumpi\n      jump(tag_2)\n    tag_10:\n      dup1\n      0x2e64cec1\n      eq\n      tag_3\n      jumpi\n      dup1\n      0x34c651e1\n      eq\n      tag_4\n      jumpi\n      dup1\n      0x471f7cdf\n      eq\n      tag_5\n      jumpi\n    tag_2:\n      revert(0x00, 0x00)\n        /* \"SimpleStorage.sol\":388:475  function retrieve() view public returns (int256) {... */\n    tag_3:\n      tag_11\n      tag_12\n      jump\t// in\n    tag_11:\n      mload(0x40)\n      tag_13\n      swap2\n      swap1\n      tag_14\n      jump\t// in\n    tag_13:\n      mload(0x40)\n      dup1\n      swap2\n      sub\n      swap1\n      return\n        /* \"SimpleStorage.sol\":589:619  Person[3] public limitedPeople */\n    tag_4:\n      tag_15\n      0x04\n      dup1\n      calldatasize\n      sub\n      dup2\n      add\n      swap1\n      tag_16\n      swap2\n      swap1\n      tag_17\n      jump\t// in\n    tag_16:\n      tag_18\n      jump\t// in\n    tag_15:\n      mload(0x40)\n      tag_19\n      swap3\n      swap2\n      swap1\n      tag_20\n      jump\t// in\n    tag_19:\n      mload(0x40)\n      dup1\n      swap2\n      sub\n      swap1\n      return\n        /* \"SimpleStorage.sol\":122:156  int256 public favoriteNumber = -88 */\n    tag_5:\n      tag_21\n      tag_22\n      jump\t// in\n    tag_21:\n      mload(0x40)\n      tag_23\n      swap2\n      swap1\n      tag_14\n      jump\t// in\n    tag_23:\n      mload(0x40)\n      dup1\n      swap2\n      sub\n      swap1\n      return\n        /* \"Addfive.sol\":303:413  function Store(uint256 _newNumber) public override {... */\n    tag_6:\n      tag_24\n      0x04\n      dup1\n      calldatasize\n      sub\n      dup2\n      add\n      swap1\n      tag_25\n      swap2\n      swap1\n      tag_17\n      jump\t// in\n    tag_25:\n      tag_26\n      jump\t// in\n    tag_24:\n      stop\n        /* \"SimpleStorage.sol\":686:903  function addPerson(string memory _name, uint256 _favNumber) public {... */\n    tag_7:\n      tag_27\n      0x04\n      dup1\n      calldatasize\n      sub\n      dup2\n      add\n      swap1\n      tag_28\n      swap2\n      swap1\n      tag_29\n      jump\t// in\n    tag_28:\n      tag_30\n      jump\t// in\n    tag_27:\n      stop\n        /* \"SimpleStorage.sol\":625:679  mapping(string => uint256) public nameToFavoriteNumber */\n    tag_8:\n      tag_31\n      0x04\n      dup1\n      calldatasize\n      sub\n      dup2\n      add\n      swap1\n      tag_32\n      swap2\n      swap1\n      tag_33\n      jump\t// in\n    tag_32:\n      tag_34\n      jump\t// in\n    tag_31:\n      mload(0x40)\n      tag_35\n      swap2\n      swap1\n      tag_36\n      jump\t// in\n    tag_35:\n      mload(0x40)\n      dup1\n      swap2\n      sub\n      swap1\n      return\n        /* \"SimpleStorage.sol\":561:583  Person[] public people */\n    tag_9:\n      tag_37\n      0x04\n      dup1\n      calldatasize\n      sub\n      dup2\n      add\n      swap1\n      tag_38\n      swap2\n      swap1\n      tag_17\n      jump\t// in\n    tag_38:\n      tag_39\n      jump\t// in\n    tag_37:\n      mload(0x40)\n      tag_40\n      swap3\n      swap2\n      swap1\n      tag_20\n      jump\t// in\n    tag_40:\n      mload(0x40)\n      dup1\n      swap2\n      sub\n      swap1\n      return\n        /* \"SimpleStorage.sol\":388:475  function retrieve() view public returns (int256) {... */\n    tag_12:\n        /* \"SimpleStorage.sol\":429:435  int256 */\n      0x00\n        /* \"SimpleStorage.sol\":454:468  favoriteNumber */\n      sload(0x01)\n        /* \"SimpleStorage.sol\":447:468  return favoriteNumber */\n      swap1\n      pop\n        /* \"SimpleStorage.sol\":388:475  function retrieve() view public returns (int256) {... */\n      swap1\n      jump\t// out\n        /* \"SimpleStorage.sol\":589:619  Person[3] public limitedPeople */\n    tag_18:\n      0x05\n      dup2\n      0x03\n      dup2\n      lt\n      tag_42\n      jumpi\n      0x00\n      dup1\n      revert\n    tag_42:\n      0x02\n      mul\n      add\n      0x00\n      swap2\n      pop\n      swap1\n      pop\n      dup1\n      0x00\n      add\n      sload\n      swap1\n      dup1\n      0x01\n      add\n      dup1\n      sload\n      tag_44\n      swap1\n      tag_45\n      jump\t// in\n    tag_44:\n      dup1\n      0x1f\n      add\n      0x20\n      dup1\n      swap2\n      div\n      mul\n      0x20\n      add\n      mload(0x40)\n      swap1\n      dup2\n      add\n      0x40\n      mstore\n      dup1\n      swap3\n      swap2\n      swap1\n      dup2\n      dup2\n      mstore\n      0x20\n      add\n      dup3\n      dup1\n      sload\n      tag_46\n      swap1\n      tag_45\n      jump\t// in\n    tag_46:\n      dup1\n      iszero\n      tag_47\n      jumpi\n      dup1\n      0x1f\n      lt\n      tag_48\n      jumpi\n      0x0100\n      dup1\n      dup4\n      sload\n      div\n      mul\n      dup4\n      mstore\n      swap2\n      0x20\n      add\n      swap2\n      jump(tag_47)\n    tag_48:\n      dup3\n      add\n      swap2\n      swap1\n      0x00\n      mstore\n      keccak256(0x00, 0x20)\n      swap1\n    tag_49:\n      dup2\n      sload\n      dup2\n      mstore\n      swap1\n      0x01\n      add\n      swap1\n      0x20\n      add\n      dup1\n      dup4\n      gt\n      tag_49\n      jumpi\n      dup3\n      swap1\n      sub\n      0x1f\n      and\n      dup3\n      add\n      swap2\n    tag_47:\n      pop\n      pop\n      pop\n      pop\n      pop\n      swap1\n      pop\n      dup3\n      jump\t// out\n        /* \"SimpleStorage.sol\":122:156  int256 public favoriteNumber = -88 */\n    tag_22:\n      sload(0x01)\n      dup2\n      jump\t// out\n        /* \"Addfive.sol\":303:413  function Store(uint256 _newNumber) public override {... */\n    tag_26:\n        /* \"Addfive.sol\":403:404  5 */\n      0x05\n        /* \"Addfive.sol\":389:399  _newNumber */\n      dup2\n        /* \"Addfive.sol\":382:404  int256(_newNumber) + 5 */\n      tag_51\n      swap2\n      swap1\n      tag_52\n      jump\t// in\n    tag_51:\n        /* \"Addfive.sol\":364:378  favoriteNumber */\n      0x01\n        /* \"Addfive.sol\":364:404  favoriteNumber =  int256(_newNumber) + 5 */\n      dup2\n      swap1\n      sstore\n      pop\n        /* \"Addfive.sol\":303:413  function Store(uint256 _newNumber) public override {... */\n      pop\n      jump\t// out\n        /* \"SimpleStorage.sol\":686:903  function addPerson(string memory _name, uint256 _favNumber) public {... */\n    tag_30:\n        /* \"SimpleStorage.sol\":763:786  Person memory newPerson */\n      0x00\n        /* \"SimpleStorage.sol\":789:814  Person(_favNumber, _name) */\n      mload(0x40)\n      dup1\n      0x40\n      add\n      0x40\n      mstore\n      dup1\n        /* \"SimpleStorage.sol\":796:806  _favNumber */\n      dup4\n        /* \"SimpleStorage.sol\":789:814  Person(_favNumber, _name) */\n      dup2\n      mstore\n      0x20\n      add\n        /* \"SimpleStorage.sol\":808:813  _name */\n      dup5\n        /* \"SimpleStorage.sol\":789:814  Person(_favNumber, _name) */\n      dup2\n      mstore\n      pop\n        /* \"SimpleStorage.sol\":763:814  Person memory newPerson = Person(_favNumber, _name) */\n      swap1\n      pop\n        /* \"SimpleStorage.sol\":824:830  people */\n      0x04\n        /* \"SimpleStorage.sol\":836:845  newPerson */\n      dup2\n        /* \"SimpleStorage.sol\":824:846  people.push(newPerson) */\n      swap1\n      dup1\n      0x01\n      dup2\n      sload\n      add\n      dup1\n      dup3\n      sstore\n      dup1\n      swap2\n      pop\n      pop\n      0x01\n      swap1\n      sub\n      swap1\n      0x00\n      mstore\n      keccak256(0x00, 0x20)\n      swap1\n      0x02\n      mul\n      add\n      0x00\n      swap1\n      swap2\n      swap1\n      swap2\n      swap1\n      swap2\n      pop\n      0x00\n      dup3\n      add\n      mload\n      dup2\n      0x00\n      add\n      sstore\n      0x20\n      dup3\n      add\n      mload\n      dup2\n      0x01\n      add\n      swap1\n      dup2\n      tag_55\n      swap2\n      swap1\n      tag_56\n      jump\t// in\n    tag_55:\n      pop\n      pop\n      pop\n        /* \"SimpleStorage.sol\":886:896  _favNumber */\n      dup2\n        /* \"SimpleStorage.sol\":856:876  nameToFavoriteNumber */\n      0x0b\n        /* \"SimpleStorage.sol\":877:882  _name */\n      dup5\n        /* \"SimpleStorage.sol\":856:883  nameToFavoriteNumber[_name] */\n      mload(0x40)\n      tag_57\n      swap2\n      swap1\n      tag_58\n      jump\t// in\n    tag_57:\n      swap1\n      dup2\n      mstore\n      0x20\n      add\n      mload(0x40)\n      dup1\n      swap2\n      sub\n      swap1\n      keccak256\n        /* \"SimpleStorage.sol\":856:896  nameToFavoriteNumber[_name] = _favNumber */\n      dup2\n      swap1\n      sstore\n      pop\n        /* \"SimpleStorage.sol\":753:903  {... */\n      pop\n        /* \"SimpleStorage.sol\":686:903  function addPerson(string memory _name, uint256 _favNumber) public {... */\n      pop\n      pop\n      jump\t// out\n        /* \"SimpleStorage.sol\":625:679  mapping(string => uint256) public nameToFavoriteNumber */\n    tag_34:\n      0x0b\n      dup2\n      dup1\n      mload\n      0x20\n      dup2\n      add\n      dup3\n      add\n      dup1\n      mload\n      dup5\n      dup3\n      mstore\n      0x20\n      dup4\n      add\n      0x20\n      dup6\n      add\n      keccak256\n      dup2\n      dup4\n      mstore\n      dup1\n      swap6\n      pop\n      pop\n      pop\n      pop\n      pop\n      pop\n      0x00\n      swap2\n      pop\n      swap1\n      pop\n      sload\n      dup2\n      jump\t// out\n        /* \"SimpleStorage.sol\":561:583  Person[] public people */\n    tag_39:\n      0x04\n      dup2\n      dup2\n      sload\n      dup2\n      lt\n      tag_59\n      jumpi\n      0x00\n      dup1\n      revert\n    tag_59:\n      swap1\n      0x00\n      mstore\n      keccak256(0x00, 0x20)\n      swap1\n      0x02\n      mul\n      add\n      0x00\n      swap2\n      pop\n      swap1\n      pop\n      dup1\n      0x00\n      add\n      sload\n      swap1\n      dup1\n      0x01\n      add\n      dup1\n      sload\n      tag_61\n      swap1\n      tag_45\n      jump\t// in\n    tag_61:\n      dup1\n      0x1f\n      add\n      0x20\n      dup1\n      swap2\n      div\n      mul\n      0x20\n      add\n      mload(0x40)\n      swap1\n      dup2\n      add\n      0x40\n      mstore\n      dup1\n      swap3\n      swap2\n      swap1\n      dup2\n      dup2\n      mstore\n      0x20\n      add\n      dup3\n      dup1\n      sload\n      tag_62\n      swap1\n      tag_45\n      jump\t// in\n    tag_62:\n      dup1\n      iszero\n      tag_63\n      jumpi\n      dup1\n      0x1f\n      lt\n      tag_64\n      jumpi\n      0x0100\n      dup1\n      dup4\n      sload\n      div\n      mul\n      dup4\n      mstore\n      swap2\n      0x20\n      add\n      swap2\n      jump(tag_63)\n    tag_64:\n      dup3\n      add\n      swap2\n      swap1\n      0x00\n      mstore\n      keccak256(0x00, 0x20)\n      swap1\n    tag_65:\n      dup2\n      sload\n      dup2\n      mstore\n      swap1\n      0x01\n      add\n      swap1\n      0x20\n      add\n      dup1\n      dup4\n      gt\n      tag_65\n      jumpi\n      dup3\n      swap1\n      sub\n      0x1f\n      and\n      dup3\n      add\n      swap2\n    tag_63:\n      pop\n      pop\n      pop\n      pop\n      pop\n      swap1\n      pop\n      dup3\n      jump\t// out\n        /* \"#utility.yul\":7:83   */\n    tag_66:\n        /* \"#utility.yul\":43:50   */\n      0x00\n        /* \"#utility.yul\":72:77   */\n      dup2\n        /* \"#utility.yul\":61:77   */\n      swap1\n      pop\n        /* \"#utility.yul\":7:83   */\n      swap2\n      swap1\n      pop\n      jump\t// out\n        /* \"#utility.yul\":89:204   */\n    tag_67:\n        /* \"#utility.yul\":174:197   */\n      tag_111\n        /* \"#utility.yul\":191:196   */\n      dup2\n        /* \"#utility.yul\":174:197   */\n      tag_66\n      jump\t// in\n    tag_111:\n        /* \"#utility.yul\":169:172   */\n      dup3\n        /* \"#utility.yul\":162:198   */\n      mstore\n        /* \"#utility.yul\":89:204   */\n      pop\n      pop\n      jump\t// out\n        /* \"#utility.yul\":210:428   */\n    tag_14:\n        /* \"#utility.yul\":301:305   */\n      0x00\n        /* \"#utility.yul\":339:341   */\n      0x20\n        /* \"#utility.yul\":328:337   */\n      dup3\n        /* \"#utility.yul\":324:342   */\n      add\n        /* \"#utility.yul\":316:342   */\n      swap1\n      pop\n        /* \"#utility.yul\":352:421   */\n      tag_113\n        /* \"#utility.yul\":418:419   */\n      0x00\n        /* \"#utility.yul\":407:416   */\n      dup4\n        /* \"#utility.yul\":403:420   */\n      add\n        /* \"#utility.yul\":394:400   */\n      dup5\n        /* \"#utility.yul\":352:421   */\n      tag_67\n      jump\t// in\n    tag_113:\n        /* \"#utility.yul\":210:428   */\n      swap3\n      swap2\n      pop\n      pop\n      jump\t// out\n        /* \"#utility.yul\":434:509   */\n    tag_68:\n        /* \"#utility.yul\":467:473   */\n      0x00\n        /* \"#utility.yul\":500:502   */\n      0x40\n        /* \"#utility.yul\":494:503   */\n      mload\n        /* \"#utility.yul\":484:503   */\n      swap1\n      pop\n        /* \"#utility.yul\":434:509   */\n      swap1\n      jump\t// out\n        /* \"#utility.yul\":515:632   */\n    tag_69:\n        /* \"#utility.yul\":624:625   */\n      0x00\n        /* \"#utility.yul\":621:622   */\n      0x00\n        /* \"#utility.yul\":614:626   */\n      revert\n        /* \"#utility.yul\":638:755   */\n    tag_70:\n        /* \"#utility.yul\":747:748   */\n      0x00\n        /* \"#utility.yul\":744:745   */\n      0x00\n        /* \"#utility.yul\":737:749   */\n      revert\n        /* \"#utility.yul\":761:838   */\n    tag_71:\n        /* \"#utility.yul\":798:805   */\n      0x00\n        /* \"#utility.yul\":827:832   */\n      dup2\n        /* \"#utility.yul\":816:832   */\n      swap1\n      pop\n        /* \"#utility.yul\":761:838   */\n      swap2\n      swap1\n      pop\n      jump\t// out\n        /* \"#utility.yul\":844:966   */\n    tag_72:\n        /* \"#utility.yul\":917:941   */\n      tag_119\n        /* \"#utility.yul\":935:940   */\n      dup2\n        /* \"#utility.yul\":917:941   */\n      tag_71\n      jump\t// in\n    tag_119:\n        /* \"#utility.yul\":910:915   */\n      dup2\n        /* \"#utility.yul\":907:942   */\n      eq\n        /* \"#utility.yul\":897:960   */\n      tag_120\n      jumpi\n        /* \"#utility.yul\":956:957   */\n      0x00\n        /* \"#utility.yul\":953:954   */\n      0x00\n        /* \"#utility.yul\":946:958   */\n      revert\n        /* \"#utility.yul\":897:960   */\n    tag_120:\n        /* \"#utility.yul\":844:966   */\n      pop\n      jump\t// out\n        /* \"#utility.yul\":972:1111   */\n    tag_73:\n        /* \"#utility.yul\":1018:1023   */\n      0x00\n        /* \"#utility.yul\":1056:1062   */\n      dup2\n        /* \"#utility.yul\":1043:1063   */\n      calldataload\n        /* \"#utility.yul\":1034:1063   */\n      swap1\n      pop\n        /* \"#utility.yul\":1072:1105   */\n      tag_122\n        /* \"#utility.yul\":1099:1104   */\n      dup2\n        /* \"#utility.yul\":1072:1105   */\n      tag_72\n      jump\t// in\n    tag_122:\n        /* \"#utility.yul\":972:1111   */\n      swap3\n      swap2\n      pop\n      pop\n      jump\t// out\n        /* \"#utility.yul\":1117:1446   */\n    tag_17:\n        /* \"#utility.yul\":1176:1182   */\n      0x00\n        /* \"#utility.yul\":1225:1227   */\n      0x20\n        /* \"#utility.yul\":1213:1222   */\n      dup3\n        /* \"#utility.yul\":1204:1211   */\n      dup5\n        /* \"#utility.yul\":1200:1223   */\n      sub\n        /* \"#utility.yul\":1196:1228   */\n      slt\n        /* \"#utility.yul\":1193:1312   */\n      iszero\n      tag_124\n      jumpi\n        /* \"#utility.yul\":1231:1310   */\n      tag_125\n      tag_69\n      jump\t// in\n    tag_125:\n        /* \"#utility.yul\":1193:1312   */\n    tag_124:\n        /* \"#utility.yul\":1351:1352   */\n      0x00\n        /* \"#utility.yul\":1376:1429   */\n      tag_126\n        /* \"#utility.yul\":1421:1428   */\n      dup5\n        /* \"#utility.yul\":1412:1418   */\n      dup3\n        /* \"#utility.yul\":1401:1410   */\n      dup6\n        /* \"#utility.yul\":1397:1419   */\n      add\n        /* \"#utility.yul\":1376:1429   */\n      tag_73\n      jump\t// in\n    tag_126:\n        /* \"#utility.yul\":1366:1429   */\n      swap2\n      pop\n        /* \"#utility.yul\":1322:1439   */\n      pop\n        /* \"#utility.yul\":1117:1446   */\n      swap3\n      swap2\n      pop\n      pop\n      jump\t// out\n        /* \"#utility.yul\":1452:1570   */\n    tag_74:\n        /* \"#utility.yul\":1539:1563   */\n      tag_128\n        /* \"#utility.yul\":1557:1562   */\n      dup2\n        /* \"#utility.yul\":1539:1563   */\n      tag_71\n      jump\t// in\n    tag_128:\n        /* \"#utility.yul\":1534:1537   */\n      dup3\n        /* \"#utility.yul\":1527:1564   */\n      mstore\n        /* \"#utility.yul\":1452:1570   */\n      pop\n      pop\n      jump\t// out\n        /* \"#utility.yul\":1576:1675   */\n    tag_75:\n        /* \"#utility.yul\":1628:1634   */\n      0x00\n        /* \"#utility.yul\":1662:1667   */\n      dup2\n        /* \"#utility.yul\":1656:1668   */\n      mload\n        /* \"#utility.yul\":1646:1668   */\n      swap1\n      pop\n        /* \"#utility.yul\":1576:1675   */\n      swap2\n      swap1\n      pop\n      jump\t// out\n        /* \"#utility.yul\":1681:1850   */\n    tag_76:\n        /* \"#utility.yul\":1765:1776   */\n      0x00\n        /* \"#utility.yul\":1799:1805   */\n      dup3\n        /* \"#utility.yul\":1794:1797   */\n      dup3\n        /* \"#utility.yul\":1787:1806   */\n      mstore\n        /* \"#utility.yul\":1839:1843   */\n      0x20\n        /* \"#utility.yul\":1834:1837   */\n      dup3\n        /* \"#utility.yul\":1830:1844   */\n      add\n        /* \"#utility.yul\":1815:1844   */\n      swap1\n      pop\n        /* \"#utility.yul\":1681:1850   */\n      swap3\n      swap2\n      pop\n      pop\n      jump\t// out\n        /* \"#utility.yul\":1856:1995   */\n    tag_77:\n        /* \"#utility.yul\":1945:1951   */\n      dup3\n        /* \"#utility.yul\":1940:1943   */\n      dup2\n        /* \"#utility.yul\":1935:1938   */\n      dup4\n        /* \"#utility.yul\":1929:1952   */\n      mcopy\n        /* \"#utility.yul\":1986:1987   */\n      0x00\n        /* \"#utility.yul\":1977:1983   */\n      dup4\n        /* \"#utility.yul\":1972:1975   */\n      dup4\n        /* \"#utility.yul\":1968:1984   */\n      add\n        /* \"#utility.yul\":1961:1988   */\n      mstore\n        /* \"#utility.yul\":1856:1995   */\n      pop\n      pop\n      pop\n      jump\t// out\n        /* \"#utility.yul\":2001:2103   */\n    tag_78:\n        /* \"#utility.yul\":2042:2048   */\n      0x00\n        /* \"#utility.yul\":2093:2095   */\n      0x1f\n        /* \"#utility.yul\":2089:2096   */\n      not\n        /* \"#utility.yul\":2084:2086   */\n      0x1f\n        /* \"#utility.yul\":2077:2082   */\n      dup4\n        /* \"#utility.yul\":2073:2087   */\n      add\n        /* \"#utility.yul\":2069:2097   */\n      and\n        /* \"#utility.yul\":2059:2097   */\n      swap1\n      pop\n        /* \"#utility.yul\":2001:2103   */\n      swap2\n      swap1\n      pop\n      jump\t// out\n        /* \"#utility.yul\":2109:2486   */\n    tag_79:\n        /* \"#utility.yul\":2197:2200   */\n      0x00\n        /* \"#utility.yul\":2225:2264   */\n      tag_134\n        /* \"#utility.yul\":2258:2263   */\n      dup3\n        /* \"#utility.yul\":2225:2264   */\n      tag_75\n      jump\t// in\n    tag_134:\n        /* \"#utility.yul\":2280:2351   */\n      tag_135\n        /* \"#utility.yul\":2344:2350   */\n      dup2\n        /* \"#utility.yul\":2339:2342   */\n      dup6\n        /* \"#utility.yul\":2280:2351   */\n      tag_76\n      jump\t// in\n    tag_135:\n        /* \"#utility.yul\":2273:2351   */\n      swap4\n      pop\n        /* \"#utility.yul\":2360:2425   */\n      tag_136\n        /* \"#utility.yul\":2418:2424   */\n      dup2\n        /* \"#utility.yul\":2413:2416   */\n      dup6\n        /* \"#utility.yul\":2406:2410   */\n      0x20\n        /* \"#utility.yul\":2399:2404   */\n      dup7\n        /* \"#utility.yul\":2395:2411   */\n      add\n        /* \"#utility.yul\":2360:2425   */\n      tag_77\n      jump\t// in\n    tag_136:\n        /* \"#utility.yul\":2450:2479   */\n      tag_137\n        /* \"#utility.yul\":2472:2478   */\n      dup2\n        /* \"#utility.yul\":2450:2479   */\n      tag_78\n      jump\t// in\n    tag_137:\n        /* \"#utility.yul\":2445:2448   */\n      dup5\n        /* \"#utility.yul\":2441:2480   */\n      add\n        /* \"#utility.yul\":2434:2480   */\n      swap2\n      pop\n        /* \"#utility.yul\":2201:2486   */\n      pop\n        /* \"#utility.yul\":2109:2486   */\n      swap3\n      swap2\n      pop\n      pop\n      jump\t// out\n        /* \"#utility.yul\":2492:2915   */\n    tag_20:\n        /* \"#utility.yul\":2633:2637   */\n      0x00\n        /* \"#utility.yul\":2671:2673   */\n      0x40\n        /* \"#utility.yul\":2660:2669   */\n      dup3\n        /* \"#utility.yul\":2656:2674   */\n      add\n        /* \"#utility.yul\":2648:2674   */\n      swap1\n      pop\n        /* \"#utility.yul\":2684:2755   */\n      tag_139\n        /* \"#utility.yul\":2752:2753   */\n      0x00\n        /* \"#utility.yul\":2741:2750   */\n      dup4\n        /* \"#utility.yul\":2737:2754   */\n      add\n        /* \"#utility.yul\":2728:2734   */\n      dup6\n        /* \"#utility.yul\":2684:2755   */\n      tag_74\n      jump\t// in\n    tag_139:\n        /* \"#utility.yul\":2802:2811   */\n      dup2\n        /* \"#utility.yul\":2796:2800   */\n      dup2\n        /* \"#utility.yul\":2792:2812   */\n      sub\n        /* \"#utility.yul\":2787:2789   */\n      0x20\n        /* \"#utility.yul\":2776:2785   */\n      dup4\n        /* \"#utility.yul\":2772:2790   */\n      add\n        /* \"#utility.yul\":2765:2813   */\n      mstore\n        /* \"#utility.yul\":2830:2908   */\n      tag_140\n        /* \"#utility.yul\":2903:2907   */\n      dup2\n        /* \"#utility.yul\":2894:2900   */\n      dup5\n        /* \"#utility.yul\":2830:2908   */\n      tag_79\n      jump\t// in\n    tag_140:\n        /* \"#utility.yul\":2822:2908   */\n      swap1\n      pop\n        /* \"#utility.yul\":2492:2915   */\n      swap4\n      swap3\n      pop\n      pop\n      pop\n      jump\t// out\n        /* \"#utility.yul\":2921:3038   */\n    tag_80:\n        /* \"#utility.yul\":3030:3031   */\n      0x00\n        /* \"#utility.yul\":3027:3028   */\n      0x00\n        /* \"#utility.yul\":3020:3032   */\n      revert\n        /* \"#utility.yul\":3044:3161   */\n    tag_81:\n        /* \"#utility.yul\":3153:3154   */\n      0x00\n        /* \"#utility.yul\":3150:3151   */\n      0x00\n        /* \"#utility.yul\":3143:3155   */\n      revert\n        /* \"#utility.yul\":3167:3347   */\n    tag_82:\n        /* \"#utility.yul\":3215:3292   */\n      0x4e487b7100000000000000000000000000000000000000000000000000000000\n        /* \"#utility.yul\":3212:3213   */\n      0x00\n        /* \"#utility.yul\":3205:3293   */\n      mstore\n        /* \"#utility.yul\":3312:3316   */\n      0x41\n        /* \"#utility.yul\":3309:3310   */\n      0x04\n        /* \"#utility.yul\":3302:3317   */\n      mstore\n        /* \"#utility.yul\":3336:3340   */\n      0x24\n        /* \"#utility.yul\":3333:3334   */\n      0x00\n        /* \"#utility.yul\":3326:3341   */\n      revert\n        /* \"#utility.yul\":3353:3634   */\n    tag_83:\n        /* \"#utility.yul\":3436:3463   */\n      tag_145\n        /* \"#utility.yul\":3458:3462   */\n      dup3\n        /* \"#utility.yul\":3436:3463   */\n      tag_78\n      jump\t// in\n    tag_145:\n        /* \"#utility.yul\":3428:3434   */\n      dup2\n        /* \"#utility.yul\":3424:3464   */\n      add\n        /* \"#utility.yul\":3566:3572   */\n      dup2\n        /* \"#utility.yul\":3554:3564   */\n      dup2\n        /* \"#utility.yul\":3551:3573   */\n      lt\n        /* \"#utility.yul\":3530:3548   */\n      0xffffffffffffffff\n        /* \"#utility.yul\":3518:3528   */\n      dup3\n        /* \"#utility.yul\":3515:3549   */\n      gt\n        /* \"#utility.yul\":3512:3574   */\n      or\n        /* \"#utility.yul\":3509:3597   */\n      iszero\n      tag_146\n      jumpi\n        /* \"#utility.yul\":3577:3595   */\n      tag_147\n      tag_82\n      jump\t// in\n    tag_147:\n        /* \"#utility.yul\":3509:3597   */\n    tag_146:\n        /* \"#utility.yul\":3617:3627   */\n      dup1\n        /* \"#utility.yul\":3613:3615   */\n      0x40\n        /* \"#utility.yul\":3606:3628   */\n      mstore\n        /* \"#utility.yul\":3396:3634   */\n      pop\n        /* \"#utility.yul\":3353:3634   */\n      pop\n      pop\n      jump\t// out\n        /* \"#utility.yul\":3640:3769   */\n    tag_84:\n        /* \"#utility.yul\":3674:3680   */\n      0x00\n        /* \"#utility.yul\":3701:3721   */\n      tag_149\n      tag_68\n      jump\t// in\n    tag_149:\n        /* \"#utility.yul\":3691:3721   */\n      swap1\n      pop\n        /* \"#utility.yul\":3730:3763   */\n      tag_150\n        /* \"#utility.yul\":3758:3762   */\n      dup3\n        /* \"#utility.yul\":3750:3756   */\n      dup3\n        /* \"#utility.yul\":3730:3763   */\n      tag_83\n      jump\t// in\n    tag_150:\n        /* \"#utility.yul\":3640:3769   */\n      swap2\n      swap1\n      pop\n      jump\t// out\n        /* \"#utility.yul\":3775:4083   */\n    tag_85:\n        /* \"#utility.yul\":3837:3841   */\n      0x00\n        /* \"#utility.yul\":3927:3945   */\n      0xffffffffffffffff\n        /* \"#utility.yul\":3919:3925   */\n      dup3\n        /* \"#utility.yul\":3916:3946   */\n      gt\n        /* \"#utility.yul\":3913:3969   */\n      iszero\n      tag_152\n      jumpi\n        /* \"#utility.yul\":3949:3967   */\n      tag_153\n      tag_82\n      jump\t// in\n    tag_153:\n        /* \"#utility.yul\":3913:3969   */\n    tag_152:\n        /* \"#utility.yul\":3987:4016   */\n      tag_154\n        /* \"#utility.yul\":4009:4015   */\n      dup3\n        /* \"#utility.yul\":3987:4016   */\n      tag_78\n      jump\t// in\n    tag_154:\n        /* \"#utility.yul\":3979:4016   */\n      swap1\n      pop\n        /* \"#utility.yul\":4071:4075   */\n      0x20\n        /* \"#utility.yul\":4065:4069   */\n      dup2\n        /* \"#utility.yul\":4061:4076   */\n      add\n        /* \"#utility.yul\":4053:4076   */\n      swap1\n      pop\n        /* \"#utility.yul\":3775:4083   */\n      swap2\n      swap1\n      pop\n      jump\t// out\n        /* \"#utility.yul\":4089:4237   */\n    tag_86:\n        /* \"#utility.yul\":4187:4193   */\n      dup3\n        /* \"#utility.yul\":4182:4185   */\n      dup2\n        /* \"#utility.yul\":4177:4180   */\n      dup4\n        /* \"#utility.yul\":4164:4194   */\n      calldatacopy\n        /* \"#utility.yul\":4228:4229   */\n      0x00\n        /* \"#utility.yul\":4219:4225   */\n      dup4\n        /* \"#utility.yul\":4214:4217   */\n      dup4\n        /* \"#utility.yul\":4210:4226   */\n      add\n        /* \"#utility.yul\":4203:4230   */\n      mstore\n        /* \"#utility.yul\":4089:4237   */\n      pop\n      pop\n      pop\n      jump\t// out\n        /* \"#utility.yul\":4243:4668   */\n    tag_87:\n        /* \"#utility.yul\":4321:4326   */\n      0x00\n        /* \"#utility.yul\":4346:4412   */\n      tag_157\n        /* \"#utility.yul\":4362:4411   */\n      tag_158\n        /* \"#utility.yul\":4404:4410   */\n      dup5\n        /* \"#utility.yul\":4362:4411   */\n      tag_85\n      jump\t// in\n    tag_158:\n        /* \"#utility.yul\":4346:4412   */\n      tag_84\n      jump\t// in\n    tag_157:\n        /* \"#utility.yul\":4337:4412   */\n      swap1\n      pop\n        /* \"#utility.yul\":4435:4441   */\n      dup3\n        /* \"#utility.yul\":4428:4433   */\n      dup2\n        /* \"#utility.yul\":4421:4442   */\n      mstore\n        /* \"#utility.yul\":4473:4477   */\n      0x20\n        /* \"#utility.yul\":4466:4471   */\n      dup2\n        /* \"#utility.yul\":4462:4478   */\n      add\n        /* \"#utility.yul\":4511:4514   */\n      dup5\n        /* \"#utility.yul\":4502:4508   */\n      dup5\n        /* \"#utility.yul\":4497:4500   */\n      dup5\n        /* \"#utility.yul\":4493:4509   */\n      add\n        /* \"#utility.yul\":4490:4515   */\n      gt\n        /* \"#utility.yul\":4487:4599   */\n      iszero\n      tag_159\n      jumpi\n        /* \"#utility.yul\":4518:4597   */\n      tag_160\n      tag_81\n      jump\t// in\n    tag_160:\n        /* \"#utility.yul\":4487:4599   */\n    tag_159:\n        /* \"#utility.yul\":4608:4662   */\n      tag_161\n        /* \"#utility.yul\":4655:4661   */\n      dup5\n        /* \"#utility.yul\":4650:4653   */\n      dup3\n        /* \"#utility.yul\":4645:4648   */\n      dup6\n        /* \"#utility.yul\":4608:4662   */\n      tag_86\n      jump\t// in\n    tag_161:\n        /* \"#utility.yul\":4327:4668   */\n      pop\n        /* \"#utility.yul\":4243:4668   */\n      swap4\n      swap3\n      pop\n      pop\n      pop\n      jump\t// out\n        /* \"#utility.yul\":4688:5028   */\n    tag_88:\n        /* \"#utility.yul\":4744:4749   */\n      0x00\n        /* \"#utility.yul\":4793:4796   */\n      dup3\n        /* \"#utility.yul\":4786:4790   */\n      0x1f\n        /* \"#utility.yul\":4778:4784   */\n      dup4\n        /* \"#utility.yul\":4774:4791   */\n      add\n        /* \"#utility.yul\":4770:4797   */\n      slt\n        /* \"#utility.yul\":4760:4882   */\n      tag_163\n      jumpi\n        /* \"#utility.yul\":4801:4880   */\n      tag_164\n      tag_80\n      jump\t// in\n    tag_164:\n        /* \"#utility.yul\":4760:4882   */\n    tag_163:\n        /* \"#utility.yul\":4918:4924   */\n      dup2\n        /* \"#utility.yul\":4905:4925   */\n      calldataload\n        /* \"#utility.yul\":4943:5022   */\n      tag_165\n        /* \"#utility.yul\":5018:5021   */\n      dup5\n        /* \"#utility.yul\":5010:5016   */\n      dup3\n        /* \"#utility.yul\":5003:5007   */\n      0x20\n        /* \"#utility.yul\":4995:5001   */\n      dup7\n        /* \"#utility.yul\":4991:5008   */\n      add\n        /* \"#utility.yul\":4943:5022   */\n      tag_87\n      jump\t// in\n    tag_165:\n        /* \"#utility.yul\":4934:5022   */\n      swap2\n      pop\n        /* \"#utility.yul\":4750:5028   */\n      pop\n        /* \"#utility.yul\":4688:5028   */\n      swap3\n      swap2\n      pop\n      pop\n      jump\t// out\n        /* \"#utility.yul\":5034:5688   */\n    tag_29:\n        /* \"#utility.yul\":5112:5118   */\n      0x00\n        /* \"#utility.yul\":5120:5126   */\n      0x00\n        /* \"#utility.yul\":5169:5171   */\n      0x40\n        /* \"#utility.yul\":5157:5166   */\n      dup4\n        /* \"#utility.yul\":5148:5155   */\n      dup6\n        /* \"#utility.yul\":5144:5167   */\n      sub\n        /* \"#utility.yul\":5140:5172   */\n      slt\n        /* \"#utility.yul\":5137:5256   */\n      iszero\n      tag_167\n      jumpi\n        /* \"#utility.yul\":5175:5254   */\n      tag_168\n      tag_69\n      jump\t// in\n    tag_168:\n        /* \"#utility.yul\":5137:5256   */\n    tag_167:\n        /* \"#utility.yul\":5323:5324   */\n      0x00\n        /* \"#utility.yul\":5312:5321   */\n      dup4\n        /* \"#utility.yul\":5308:5325   */\n      add\n        /* \"#utility.yul\":5295:5326   */\n      calldataload\n        /* \"#utility.yul\":5353:5371   */\n      0xffffffffffffffff\n        /* \"#utility.yul\":5345:5351   */\n      dup2\n        /* \"#utility.yul\":5342:5372   */\n      gt\n        /* \"#utility.yul\":5339:5456   */\n      iszero\n      tag_169\n      jumpi\n        /* \"#utility.yul\":5375:5454   */\n      tag_170\n      tag_70\n      jump\t// in\n    tag_170:\n        /* \"#utility.yul\":5339:5456   */\n    tag_169:\n        /* \"#utility.yul\":5480:5543   */\n      tag_171\n        /* \"#utility.yul\":5535:5542   */\n      dup6\n        /* \"#utility.yul\":5526:5532   */\n      dup3\n        /* \"#utility.yul\":5515:5524   */\n      dup7\n        /* \"#utility.yul\":5511:5533   */\n      add\n        /* \"#utility.yul\":5480:5543   */\n      tag_88\n      jump\t// in\n    tag_171:\n        /* \"#utility.yul\":5470:5543   */\n      swap3\n      pop\n        /* \"#utility.yul\":5266:5553   */\n      pop\n        /* \"#utility.yul\":5592:5594   */\n      0x20\n        /* \"#utility.yul\":5618:5671   */\n      tag_172\n        /* \"#utility.yul\":5663:5670   */\n      dup6\n        /* \"#utility.yul\":5654:5660   */\n      dup3\n        /* \"#utility.yul\":5643:5652   */\n      dup7\n        /* \"#utility.yul\":5639:5661   */\n      add\n        /* \"#utility.yul\":5618:5671   */\n      tag_73\n      jump\t// in\n    tag_172:\n        /* \"#utility.yul\":5608:5671   */\n      swap2\n      pop\n        /* \"#utility.yul\":5563:5681   */\n      pop\n        /* \"#utility.yul\":5034:5688   */\n      swap3\n      pop\n      swap3\n      swap1\n      pop\n      jump\t// out\n        /* \"#utility.yul\":5694:6203   */\n    tag_33:\n        /* \"#utility.yul\":5763:5769   */\n      0x00\n        /* \"#utility.yul\":5812:5814   */\n      0x20\n        /* \"#utility.yul\":5800:5809   */\n      dup3\n        /* \"#utility.yul\":5791:5798   */\n      dup5\n        /* \"#utility.yul\":5787:5810   */\n      sub\n        /* \"#utility.yul\":5783:5815   */\n      slt\n        /* \"#utility.yul\":5780:5899   */\n      iszero\n      tag_174\n      jumpi\n        /* \"#utility.yul\":5818:5897   */\n      tag_175\n      tag_69\n      jump\t// in\n    tag_175:\n        /* \"#utility.yul\":5780:5899   */\n    tag_174:\n        /* \"#utility.yul\":5966:5967   */\n      0x00\n        /* \"#utility.yul\":5955:5964   */\n      dup3\n        /* \"#utility.yul\":5951:5968   */\n      add\n        /* \"#utility.yul\":5938:5969   */\n      calldataload\n        /* \"#utility.yul\":5996:6014   */\n      0xffffffffffffffff\n        /* \"#utility.yul\":5988:5994   */\n      dup2\n        /* \"#utility.yul\":5985:6015   */\n      gt\n        /* \"#utility.yul\":5982:6099   */\n      iszero\n      tag_176\n      jumpi\n        /* \"#utility.yul\":6018:6097   */\n      tag_177\n      tag_70\n      jump\t// in\n    tag_177:\n        /* \"#utility.yul\":5982:6099   */\n    tag_176:\n        /* \"#utility.yul\":6123:6186   */\n      tag_178\n        /* \"#utility.yul\":6178:6185   */\n      dup5\n        /* \"#utility.yul\":6169:6175   */\n      dup3\n        /* \"#utility.yul\":6158:6167   */\n      dup6\n        /* \"#utility.yul\":6154:6176   */\n      add\n        /* \"#utility.yul\":6123:6186   */\n      tag_88\n      jump\t// in\n    tag_178:\n        /* \"#utility.yul\":6113:6186   */\n      swap2\n      pop\n        /* \"#utility.yul\":5909:6196   */\n      pop\n        /* \"#utility.yul\":5694:6203   */\n      swap3\n      swap2\n      pop\n      pop\n      jump\t// out\n        /* \"#utility.yul\":6209:6431   */\n    tag_36:\n        /* \"#utility.yul\":6302:6306   */\n      0x00\n        /* \"#utility.yul\":6340:6342   */\n      0x20\n        /* \"#utility.yul\":6329:6338   */\n      dup3\n        /* \"#utility.yul\":6325:6343   */\n      add\n        /* \"#utility.yul\":6317:6343   */\n      swap1\n      pop\n        /* \"#utility.yul\":6353:6424   */\n      tag_180\n        /* \"#utility.yul\":6421:6422   */\n      0x00\n        /* \"#utility.yul\":6410:6419   */\n      dup4\n        /* \"#utility.yul\":6406:6423   */\n      add\n        /* \"#utility.yul\":6397:6403   */\n      dup5\n        /* \"#utility.yul\":6353:6424   */\n      tag_74\n      jump\t// in\n    tag_180:\n        /* \"#utility.yul\":6209:6431   */\n      swap3\n      swap2\n      pop\n      pop\n      jump\t// out\n        /* \"#utility.yul\":6437:6617   */\n    tag_89:\n        /* \"#utility.yul\":6485:6562   */\n      0x4e487b7100000000000000000000000000000000000000000000000000000000\n        /* \"#utility.yul\":6482:6483   */\n      0x00\n        /* \"#utility.yul\":6475:6563   */\n      mstore\n        /* \"#utility.yul\":6582:6586   */\n      0x22\n        /* \"#utility.yul\":6579:6580   */\n      0x04\n        /* \"#utility.yul\":6572:6587   */\n      mstore\n        /* \"#utility.yul\":6606:6610   */\n      0x24\n        /* \"#utility.yul\":6603:6604   */\n      0x00\n        /* \"#utility.yul\":6596:6611   */\n      revert\n        /* \"#utility.yul\":6623:6943   */\n    tag_45:\n        /* \"#utility.yul\":6667:6673   */\n      0x00\n        /* \"#utility.yul\":6704:6705   */\n      0x02\n        /* \"#utility.yul\":6698:6702   */\n      dup3\n        /* \"#utility.yul\":6694:6706   */\n      div\n        /* \"#utility.yul\":6684:6706   */\n      swap1\n      pop\n        /* \"#utility.yul\":6751:6752   */\n      0x01\n        /* \"#utility.yul\":6745:6749   */\n      dup3\n        /* \"#utility.yul\":6741:6753   */\n      and\n        /* \"#utility.yul\":6772:6790   */\n      dup1\n        /* \"#utility.yul\":6762:6843   */\n      tag_183\n      jumpi\n        /* \"#utility.yul\":6828:6832   */\n      0x7f\n        /* \"#utility.yul\":6820:6826   */\n      dup3\n        /* \"#utility.yul\":6816:6833   */\n      and\n        /* \"#utility.yul\":6806:6833   */\n      swap2\n      pop\n        /* \"#utility.yul\":6762:6843   */\n    tag_183:\n        /* \"#utility.yul\":6890:6892   */\n      0x20\n        /* \"#utility.yul\":6882:6888   */\n      dup3\n        /* \"#utility.yul\":6879:6893   */\n      lt\n        /* \"#utility.yul\":6859:6877   */\n      dup2\n        /* \"#utility.yul\":6856:6894   */\n      sub\n        /* \"#utility.yul\":6853:6937   */\n      tag_184\n      jumpi\n        /* \"#utility.yul\":6909:6927   */\n      tag_185\n      tag_89\n      jump\t// in\n    tag_185:\n        /* \"#utility.yul\":6853:6937   */\n    tag_184:\n        /* \"#utility.yul\":6674:6943   */\n      pop\n        /* \"#utility.yul\":6623:6943   */\n      swap2\n      swap1\n      pop\n      jump\t// out\n        /* \"#utility.yul\":6949:7129   */\n    tag_90:\n        /* \"#utility.yul\":6997:7074   */\n      0x4e487b7100000000000000000000000000000000000000000000000000000000\n        /* \"#utility.yul\":6994:6995   */\n      0x00\n        /* \"#utility.yul\":6987:7075   */\n      mstore\n        /* \"#utility.yul\":7094:7098   */\n      0x11\n        /* \"#utility.yul\":7091:7092   */\n      0x04\n        /* \"#utility.yul\":7084:7099   */\n      mstore\n        /* \"#utility.yul\":7118:7122   */\n      0x24\n        /* \"#utility.yul\":7115:7116   */\n      0x00\n        /* \"#utility.yul\":7108:7123   */\n      revert\n        /* \"#utility.yul\":7135:7510   */\n    tag_52:\n        /* \"#utility.yul\":7174:7177   */\n      0x00\n        /* \"#utility.yul\":7193:7212   */\n      tag_188\n        /* \"#utility.yul\":7210:7211   */\n      dup3\n        /* \"#utility.yul\":7193:7212   */\n      tag_66\n      jump\t// in\n    tag_188:\n        /* \"#utility.yul\":7188:7212   */\n      swap2\n      pop\n        /* \"#utility.yul\":7226:7245   */\n      tag_189\n        /* \"#utility.yul\":7243:7244   */\n      dup4\n        /* \"#utility.yul\":7226:7245   */\n      tag_66\n      jump\t// in\n    tag_189:\n        /* \"#utility.yul\":7221:7245   */\n      swap3\n      pop\n        /* \"#utility.yul\":7268:7269   */\n      dup3\n        /* \"#utility.yul\":7265:7266   */\n      dup3\n        /* \"#utility.yul\":7261:7270   */\n      add\n        /* \"#utility.yul\":7254:7270   */\n      swap1\n      pop\n        /* \"#utility.yul\":7466:7467   */\n      dup3\n        /* \"#utility.yul\":7461:7464   */\n      dup2\n        /* \"#utility.yul\":7457:7468   */\n      slt\n        /* \"#utility.yul\":7450:7469   */\n      iszero\n        /* \"#utility.yul\":7446:7447   */\n      0x00\n        /* \"#utility.yul\":7443:7444   */\n      dup4\n        /* \"#utility.yul\":7439:7448   */\n      slt\n        /* \"#utility.yul\":7435:7470   */\n      and\n        /* \"#utility.yul\":7418:7419   */\n      dup4\n        /* \"#utility.yul\":7413:7416   */\n      dup3\n        /* \"#utility.yul\":7409:7420   */\n      slt\n        /* \"#utility.yul\":7404:7405   */\n      0x00\n        /* \"#utility.yul\":7401:7402   */\n      dup5\n        /* \"#utility.yul\":7397:7406   */\n      slt\n        /* \"#utility.yul\":7390:7407   */\n      iszero\n        /* \"#utility.yul\":7386:7421   */\n      and\n        /* \"#utility.yul\":7370:7480   */\n      or\n        /* \"#utility.yul\":7367:7503   */\n      iszero\n      tag_190\n      jumpi\n        /* \"#utility.yul\":7483:7501   */\n      tag_191\n      tag_90\n      jump\t// in\n    tag_191:\n        /* \"#utility.yul\":7367:7503   */\n    tag_190:\n        /* \"#utility.yul\":7135:7510   */\n      swap3\n      swap2\n      pop\n      pop\n      jump\t// out\n        /* \"#utility.yul\":7516:7657   */\n    tag_91:\n        /* \"#utility.yul\":7565:7569   */\n      0x00\n        /* \"#utility.yul\":7588:7591   */\n      dup2\n        /* \"#utility.yul\":7580:7591   */\n      swap1\n      pop\n        /* \"#utility.yul\":7611:7614   */\n      dup2\n        /* \"#utility.yul\":7608:7609   */\n      0x00\n        /* \"#utility.yul\":7601:7615   */\n      mstore\n        /* \"#utility.yul\":7645:7649   */\n      0x20\n        /* \"#utility.yul\":7642:7643   */\n      0x00\n        /* \"#utility.yul\":7632:7650   */\n      keccak256\n        /* \"#utility.yul\":7624:7650   */\n      swap1\n      pop\n        /* \"#utility.yul\":7516:7657   */\n      swap2\n      swap1\n      pop\n      jump\t// out\n        /* \"#utility.yul\":7663:7756   */\n    tag_92:\n        /* \"#utility.yul\":7700:7706   */\n      0x00\n        /* \"#utility.yul\":7747:7749   */\n      0x20\n        /* \"#utility.yul\":7742:7744   */\n      0x1f\n        /* \"#utility.yul\":7735:7740   */\n      dup4\n        /* \"#utility.yul\":7731:7745   */\n      add\n        /* \"#utility.yul\":7727:7750   */\n      div\n        /* \"#utility.yul\":7717:7750   */\n      swap1\n      pop\n        /* \"#utility.yul\":7663:7756   */\n      swap2\n      swap1\n      pop\n      jump\t// out\n        /* \"#utility.yul\":7762:7869   */\n    tag_93:\n        /* \"#utility.yul\":7806:7814   */\n      0x00\n        /* \"#utility.yul\":7856:7861   */\n      dup3\n        /* \"#utility.yul\":7850:7854   */\n      dup3\n        /* \"#utility.yul\":7846:7862   */\n      shl\n        /* \"#utility.yul\":7825:7862   */\n      swap1\n      pop\n        /* \"#utility.yul\":7762:7869   */\n      swap3\n      swap2\n      pop\n      pop\n      jump\t// out\n        /* \"#utility.yul\":7875:8268   */\n    tag_94:\n        /* \"#utility.yul\":7944:7950   */\n      0x00\n        /* \"#utility.yul\":7994:7995   */\n      0x08\n        /* \"#utility.yul\":7982:7992   */\n      dup4\n        /* \"#utility.yul\":7978:7996   */\n      mul\n        /* \"#utility.yul\":8017:8114   */\n      tag_196\n        /* \"#utility.yul\":8047:8113   */\n      0xffffffffffffffffffffffffffffffffffffffffffffffffffffffffffffffff\n        /* \"#utility.yul\":8036:8045   */\n      dup3\n        /* \"#utility.yul\":8017:8114   */\n      tag_93\n      jump\t// in\n    tag_196:\n        /* \"#utility.yul\":8135:8174   */\n      tag_197\n        /* \"#utility.yul\":8165:8173   */\n      dup7\n        /* \"#utility.yul\":8154:8163   */\n      dup4\n        /* \"#utility.yul\":8135:8174   */\n      tag_93\n      jump\t// in\n    tag_197:\n        /* \"#utility.yul\":8123:8174   */\n      swap6\n      pop\n        /* \"#utility.yul\":8207:8211   */\n      dup1\n        /* \"#utility.yul\":8203:8212   */\n      not\n        /* \"#utility.yul\":8196:8201   */\n      dup5\n        /* \"#utility.yul\":8192:8213   */\n      and\n        /* \"#utility.yul\":8183:8213   */\n      swap4\n      pop\n        /* \"#utility.yul\":8256:8260   */\n      dup1\n        /* \"#utility.yul\":8246:8254   */\n      dup7\n        /* \"#utility.yul\":8242:8261   */\n      and\n        /* \"#utility.yul\":8235:8240   */\n      dup5\n        /* \"#utility.yul\":8232:8262   */\n      or\n        /* \"#utility.yul\":8222:8262   */\n      swap3\n      pop\n        /* \"#utility.yul\":7951:8268   */\n      pop\n      pop\n        /* \"#utility.yul\":7875:8268   */\n      swap4\n      swap3\n      pop\n      pop\n      pop\n      jump\t// out\n        /* \"#utility.yul\":8274:8334   */\n    tag_95:\n        /* \"#utility.yul\":8302:8305   */\n      0x00\n        /* \"#utility.yul\":8323:8328   */\n      dup2\n        /* \"#utility.yul\":8316:8328   */\n      swap1\n      pop\n        /* \"#utility.yul\":8274:8334   */\n      swap2\n      swap1\n      pop\n      jump\t// out\n        /* \"#utility.yul\":8340:8482   */\n    tag_96:\n        /* \"#utility.yul\":8390:8399   */\n      0x00\n        /* \"#utility.yul\":8423:8476   */\n      tag_200\n        /* \"#utility.yul\":8441:8475   */\n      tag_201\n        /* \"#utility.yul\":8450:8474   */\n      tag_202\n        /* \"#utility.yul\":8468:8473   */\n      dup5\n        /* \"#utility.yul\":8450:8474   */\n      tag_71\n      jump\t// in\n    tag_202:\n        /* \"#utility.yul\":8441:8475   */\n      tag_95\n      jump\t// in\n    tag_201:\n        /* \"#utility.yul\":8423:8476   */\n      tag_71\n      jump\t// in\n    tag_200:\n        /* \"#utility.yul\":8410:8476   */\n      swap1\n      pop\n        /* \"#utility.yul\":8340:8482   */\n      swap2\n      swap1\n      pop\n      jump\t// out\n        /* \"#utility.yul\":8488:8563   */\n    tag_97:\n        /* \"#utility.yul\":8531:8534   */\n      0x00\n        /* \"#utility.yul\":8552:8557   */\n      dup2\n        /* \"#utility.yul\":8545:8557   */\n      swap1\n      pop\n        /* \"#utility.yul\":8488:8563   */\n      swap2\n      swap1\n      pop\n      jump\t// out\n        /* \"#utility.yul\":8569:8838   */\n    tag_98:\n        /* \"#utility.yul\":8679:8718   */\n      tag_205\n        /* \"#utility.yul\":8710:8717   */\n      dup4\n        /* \"#utility.yul\":8679:8718   */\n      tag_96\n      jump\t// in\n    tag_205:\n        /* \"#utility.yul\":8740:8831   */\n      tag_206\n        /* \"#utility.yul\":8789:8830   */\n      tag_207\n        /* \"#utility.yul\":8813:8829   */\n      dup3\n        /* \"#utility.yul\":8789:8830   */\n      tag_97\n      jump\t// in\n    tag_207:\n        /* \"#utility.yul\":8781:8787   */\n      dup5\n        /* \"#utility.yul\":8774:8778   */\n      dup5\n        /* \"#utility.yul\":8768:8779   */\n      sload\n        /* \"#utility.yul\":8740:8831   */\n      tag_94\n      jump\t// in\n    tag_206:\n        /* \"#utility.yul\":8734:8738   */\n      dup3\n        /* \"#utility.yul\":8727:8832   */\n      sstore\n        /* \"#utility.yul\":8645:8838   */\n      pop\n        /* \"#utility.yul\":8569:8838   */\n      pop\n      pop\n      pop\n      jump\t// out\n        /* \"#utility.yul\":8844:8917   */\n    tag_99:\n        /* \"#utility.yul\":8889:8892   */\n      0x00\n        /* \"#utility.yul\":8910:8911   */\n      0x00\n        /* \"#utility.yul\":8903:8911   */\n      swap1\n      pop\n        /* \"#utility.yul\":8844:8917   */\n      swap1\n      jump\t// out\n        /* \"#utility.yul\":8923:9112   */\n    tag_100:\n        /* \"#utility.yul\":9000:9032   */\n      tag_210\n      tag_99\n      jump\t// in\n    tag_210:\n        /* \"#utility.yul\":9041:9106   */\n      tag_211\n        /* \"#utility.yul\":9099:9105   */\n      dup2\n        /* \"#utility.yul\":9091:9097   */\n      dup5\n        /* \"#utility.yul\":9085:9089   */\n      dup5\n        /* \"#utility.yul\":9041:9106   */\n      tag_98\n      jump\t// in\n    tag_211:\n        /* \"#utility.yul\":8976:9112   */\n      pop\n        /* \"#utility.yul\":8923:9112   */\n      pop\n      pop\n      jump\t// out\n        /* \"#utility.yul\":9118:9304   */\n    tag_101:\n        /* \"#utility.yul\":9178:9298   */\n    tag_213:\n        /* \"#utility.yul\":9195:9198   */\n      dup2\n        /* \"#utility.yul\":9188:9193   */\n      dup2\n        /* \"#utility.yul\":9185:9199   */\n      lt\n        /* \"#utility.yul\":9178:9298   */\n      iszero\n      tag_215\n      jumpi\n        /* \"#utility.yul\":9249:9288   */\n      tag_216\n        /* \"#utility.yul\":9286:9287   */\n      0x00\n        /* \"#utility.yul\":9279:9284   */\n      dup3\n        /* \"#utility.yul\":9249:9288   */\n      tag_100\n      jump\t// in\n    tag_216:\n        /* \"#utility.yul\":9222:9223   */\n      0x01\n        /* \"#utility.yul\":9215:9220   */\n      dup2\n        /* \"#utility.yul\":9211:9224   */\n      add\n        /* \"#utility.yul\":9202:9224   */\n      swap1\n      pop\n        /* \"#utility.yul\":9178:9298   */\n      jump(tag_213)\n    tag_215:\n        /* \"#utility.yul\":9118:9304   */\n      pop\n      pop\n      jump\t// out\n        /* \"#utility.yul\":9310:9853   */\n    tag_102:\n        /* \"#utility.yul\":9411:9413   */\n      0x1f\n        /* \"#utility.yul\":9406:9409   */\n      dup3\n        /* \"#utility.yul\":9403:9414   */\n      gt\n        /* \"#utility.yul\":9400:9846   */\n      iszero\n      tag_218\n      jumpi\n        /* \"#utility.yul\":9445:9483   */\n      tag_219\n        /* \"#utility.yul\":9477:9482   */\n      dup2\n        /* \"#utility.yul\":9445:9483   */\n      tag_91\n      jump\t// in\n    tag_219:\n        /* \"#utility.yul\":9529:9558   */\n      tag_220\n        /* \"#utility.yul\":9547:9557   */\n      dup5\n        /* \"#utility.yul\":9529:9558   */\n      tag_92\n      jump\t// in\n    tag_220:\n        /* \"#utility.yul\":9519:9527   */\n      dup2\n        /* \"#utility.yul\":9515:9559   */\n      add\n        /* \"#utility.yul\":9712:9714   */\n      0x20\n        /* \"#utility.yul\":9700:9710   */\n      dup6\n        /* \"#utility.yul\":9697:9715   */\n      lt\n        /* \"#utility.yul\":9694:9743   */\n      iszero\n      tag_221\n      jumpi\n        /* \"#utility.yul\":9733:9741   */\n      dup2\n        /* \"#utility.yul\":9718:9741   */\n      swap1\n      pop\n        /* \"#utility.yul\":9694:9743   */\n    tag_221:\n        /* \"#utility.yul\":9756:9836   */\n      tag_222\n        /* \"#utility.yul\":9812:9834   */\n      tag_223\n        /* \"#utility.yul\":9830:9833   */\n      dup6\n        /* \"#utility.yul\":9812:9834   */\n      tag_92\n      jump\t// in\n    tag_223:\n        /* \"#utility.yul\":9802:9810   */\n      dup4\n        /* \"#utility.yul\":9798:9835   */\n      add\n        /* \"#utility.yul\":9785:9796   */\n      dup3\n        /* \"#utility.yul\":9756:9836   */\n      tag_101\n      jump\t// in\n    tag_222:\n        /* \"#utility.yul\":9415:9846   */\n      pop\n      pop\n        /* \"#utility.yul\":9400:9846   */\n    tag_218:\n        /* \"#utility.yul\":9310:9853   */\n      pop\n      pop\n      pop\n      jump\t// out\n        /* \"#utility.yul\":9859:9976   */\n    tag_103:\n        /* \"#utility.yul\":9913:9921   */\n      0x00\n        /* \"#utility.yul\":9963:9968   */\n      dup3\n        /* \"#utility.yul\":9957:9961   */\n      dup3\n        /* \"#utility.yul\":9953:9969   */\n      shr\n        /* \"#utility.yul\":9932:9969   */\n      swap1\n      pop\n        /* \"#utility.yul\":9859:9976   */\n      swap3\n      swap2\n      pop\n      pop\n      jump\t// out\n        /* \"#utility.yul\":9982:10151   */\n    tag_104:\n        /* \"#utility.yul\":10026:10032   */\n      0x00\n        /* \"#utility.yul\":10059:10110   */\n      tag_226\n        /* \"#utility.yul\":10107:10108   */\n      0x00\n        /* \"#utility.yul\":10103:10109   */\n      not\n        /* \"#utility.yul\":10095:10100   */\n      dup5\n        /* \"#utility.yul\":10092:10093   */\n      0x08\n        /* \"#utility.yul\":10088:10101   */\n      mul\n        /* \"#utility.yul\":10059:10110   */\n      tag_103\n      jump\t// in\n    tag_226:\n        /* \"#utility.yul\":10055:10111   */\n      not\n        /* \"#utility.yul\":10140:10144   */\n      dup1\n        /* \"#utility.yul\":10134:10138   */\n      dup4\n        /* \"#utility.yul\":10130:10145   */\n      and\n        /* \"#utility.yul\":10120:10145   */\n      swap2\n      pop\n        /* \"#utility.yul\":10033:10151   */\n      pop\n        /* \"#utility.yul\":9982:10151   */\n      swap3\n      swap2\n      pop\n      pop\n      jump\t// out\n        /* \"#utility.yul\":10156:10451   */\n    tag_105:\n        /* \"#utility.yul\":10232:10236   */\n      0x00\n        /* \"#utility.yul\":10378:10407   */\n      tag_228\n        /* \"#utility.yul\":10403:10406   */\n      dup4\n        /* \"#utility.yul\":10397:10401   */\n      dup4\n        /* \"#utility.yul\":10378:10407   */\n      tag_104\n      jump\t// in\n    tag_228:\n        /* \"#utility.yul\":10370:10407   */\n      swap2\n      pop\n        /* \"#utility.yul\":10440:10443   */\n      dup3\n        /* \"#utility.yul\":10437:10438   */\n      0x02\n        /* \"#utility.yul\":10433:10444   */\n      mul\n        /* \"#utility.yul\":10427:10431   */\n      dup3\n        /* \"#utility.yul\":10424:10445   */\n      or\n        /* \"#utility.yul\":10416:10445   */\n      swap1\n      pop\n        /* \"#utility.yul\":10156:10451   */\n      swap3\n      swap2\n      pop\n      pop\n      jump\t// out\n        /* \"#utility.yul\":10456:11851   */\n    tag_56:\n        /* \"#utility.yul\":10573:10610   */\n      tag_230\n        /* \"#utility.yul\":10606:10609   */\n      dup3\n        /* \"#utility.yul\":10573:10610   */\n      tag_75\n      jump\t// in\n    tag_230:\n        /* \"#utility.yul\":10675:10693   */\n      0xffffffffffffffff\n        /* \"#utility.yul\":10667:10673   */\n      dup2\n        /* \"#utility.yul\":10664:10694   */\n      gt\n        /* \"#utility.yul\":10661:10717   */\n      iszero\n      tag_231\n      jumpi\n        /* \"#utility.yul\":10697:10715   */\n      tag_232\n      tag_82\n      jump\t// in\n    tag_232:\n        /* \"#utility.yul\":10661:10717   */\n    tag_231:\n        /* \"#utility.yul\":10741:10779   */\n      tag_233\n        /* \"#utility.yul\":10773:10777   */\n      dup3\n        /* \"#utility.yul\":10767:10778   */\n      sload\n        /* \"#utility.yul\":10741:10779   */\n      tag_45\n      jump\t// in\n    tag_233:\n        /* \"#utility.yul\":10826:10893   */\n      tag_234\n        /* \"#utility.yul\":10886:10892   */\n      dup3\n        /* \"#utility.yul\":10878:10884   */\n      dup3\n        /* \"#utility.yul\":10872:10876   */\n      dup6\n        /* \"#utility.yul\":10826:10893   */\n      tag_102\n      jump\t// in\n    tag_234:\n        /* \"#utility.yul\":10920:10921   */\n      0x00\n        /* \"#utility.yul\":10944:10948   */\n      0x20\n        /* \"#utility.yul\":10931:10948   */\n      swap1\n      pop\n        /* \"#utility.yul\":10976:10978   */\n      0x1f\n        /* \"#utility.yul\":10968:10974   */\n      dup4\n        /* \"#utility.yul\":10965:10979   */\n      gt\n        /* \"#utility.yul\":10993:10994   */\n      0x01\n        /* \"#utility.yul\":10988:11606   */\n      dup2\n      eq\n      tag_236\n      jumpi\n        /* \"#utility.yul\":11650:11651   */\n      0x00\n        /* \"#utility.yul\":11667:11673   */\n      dup5\n        /* \"#utility.yul\":11664:11741   */\n      iszero\n      tag_237\n      jumpi\n        /* \"#utility.yul\":11716:11725   */\n      dup3\n        /* \"#utility.yul\":11711:11714   */\n      dup8\n        /* \"#utility.yul\":11707:11726   */\n      add\n        /* \"#utility.yul\":11701:11727   */\n      mload\n        /* \"#utility.yul\":11692:11727   */\n      swap1\n      pop\n        /* \"#utility.yul\":11664:11741   */\n    tag_237:\n        /* \"#utility.yul\":11767:11834   */\n      tag_238\n        /* \"#utility.yul\":11827:11833   */\n      dup6\n        /* \"#utility.yul\":11820:11825   */\n      dup3\n        /* \"#utility.yul\":11767:11834   */\n      tag_105\n      jump\t// in\n    tag_238:\n        /* \"#utility.yul\":11761:11765   */\n      dup7\n        /* \"#utility.yul\":11754:11835   */\n      sstore\n        /* \"#utility.yul\":11623:11845   */\n      pop\n        /* \"#utility.yul\":10958:11845   */\n      jump(tag_235)\n        /* \"#utility.yul\":10988:11606   */\n    tag_236:\n        /* \"#utility.yul\":11040:11044   */\n      0x1f\n        /* \"#utility.yul\":11036:11045   */\n      not\n        /* \"#utility.yul\":11028:11034   */\n      dup5\n        /* \"#utility.yul\":11024:11046   */\n      and\n        /* \"#utility.yul\":11074:11111   */\n      tag_239\n        /* \"#utility.yul\":11106:11110   */\n      dup7\n        /* \"#utility.yul\":11074:11111   */\n      tag_91\n      jump\t// in\n    tag_239:\n        /* \"#utility.yul\":11133:11134   */\n      0x00\n        /* \"#utility.yul\":11147:11355   */\n    tag_240:\n        /* \"#utility.yul\":11161:11168   */\n      dup3\n        /* \"#utility.yul\":11158:11159   */\n      dup2\n        /* \"#utility.yul\":11155:11169   */\n      lt\n        /* \"#utility.yul\":11147:11355   */\n      iszero\n      tag_242\n      jumpi\n        /* \"#utility.yul\":11240:11249   */\n      dup5\n        /* \"#utility.yul\":11235:11238   */\n      dup10\n        /* \"#utility.yul\":11231:11250   */\n      add\n        /* \"#utility.yul\":11225:11251   */\n      mload\n        /* \"#utility.yul\":11217:11223   */\n      dup3\n        /* \"#utility.yul\":11210:11252   */\n      sstore\n        /* \"#utility.yul\":11291:11292   */\n      0x01\n        /* \"#utility.yul\":11283:11289   */\n      dup3\n        /* \"#utility.yul\":11279:11293   */\n      add\n        /* \"#utility.yul\":11269:11293   */\n      swap2\n      pop\n        /* \"#utility.yul\":11338:11340   */\n      0x20\n        /* \"#utility.yul\":11327:11336   */\n      dup6\n        /* \"#utility.yul\":11323:11341   */\n      add\n        /* \"#utility.yul\":11310:11341   */\n      swap5\n      pop\n        /* \"#utility.yul\":11184:11188   */\n      0x20\n        /* \"#utility.yul\":11181:11182   */\n      dup2\n        /* \"#utility.yul\":11177:11189   */\n      add\n        /* \"#utility.yul\":11172:11189   */\n      swap1\n      pop\n        /* \"#utility.yul\":11147:11355   */\n      jump(tag_240)\n    tag_242:\n        /* \"#utility.yul\":11383:11389   */\n      dup7\n        /* \"#utility.yul\":11374:11381   */\n      dup4\n        /* \"#utility.yul\":11371:11390   */\n      lt\n        /* \"#utility.yul\":11368:11547   */\n      iszero\n      tag_243\n      jumpi\n        /* \"#utility.yul\":11441:11450   */\n      dup5\n        /* \"#utility.yul\":11436:11439   */\n      dup10\n        /* \"#utility.yul\":11432:11451   */\n      add\n        /* \"#utility.yul\":11426:11452   */\n      mload\n        /* \"#utility.yul\":11484:11532   */\n      tag_244\n        /* \"#utility.yul\":11526:11530   */\n      0x1f\n        /* \"#utility.yul\":11518:11524   */\n      dup10\n        /* \"#utility.yul\":11514:11531   */\n      and\n        /* \"#utility.yul\":11503:11512   */\n      dup3\n        /* \"#utility.yul\":11484:11532   */\n      tag_104\n      jump\t// in\n    tag_244:\n        /* \"#utility.yul\":11476:11482   */\n      dup4\n        /* \"#utility.yul\":11469:11533   */\n      sstore\n        /* \"#utility.yul\":11391:11547   */\n      pop\n        /* \"#utility.yul\":11368:11547   */\n    tag_243:\n        /* \"#utility.yul\":11593:11594   */\n      0x01\n        /* \"#utility.yul\":11589:11590   */\n      0x02\n        /* \"#utility.yul\":11581:11587   */\n      dup9\n        /* \"#utility.yul\":11577:11591   */\n      mul\n        /* \"#utility.yul\":11573:11595   */\n      add\n        /* \"#utility.yul\":11567:11571   */\n      dup9\n        /* \"#utility.yul\":11560:11596   */\n      sstore\n        /* \"#utility.yul\":10995:11606   */\n      pop\n      pop\n      pop\n        /* \"#utility.yul\":10958:11845   */\n    tag_235:\n      pop\n        /* \"#utility.yul\":10548:11851   */\n      pop\n      pop\n      pop\n        /* \"#utility.yul\":10456:11851   */\n      pop\n      pop\n      jump\t// out\n        /* \"#utility.yul\":11857:12005   */\n    tag_106:\n        /* \"#utility.yul\":11959:11970   */\n      0x00\n        /* \"#utility.yul\":11996:11999   */\n      dup2\n        /* \"#utility.yul\":11981:11999   */\n      swap1\n      pop\n        /* \"#utility.yul\":11857:12005   */\n      swap3\n      swap2\n      pop\n      pop\n      jump\t// out\n        /* \"#utility.yul\":12011:12401   */\n    tag_107:\n        /* \"#utility.yul\":12117:12120   */\n      0x00\n        /* \"#utility.yul\":12145:12184   */\n      tag_247\n        /* \"#utility.yul\":12178:12183   */\n      dup3\n        /* \"#utility.yul\":12145:12184   */\n      tag_75\n      jump\t// in\n    tag_247:\n        /* \"#utility.yul\":12200:12289   */\n      tag_248\n        /* \"#utility.yul\":12282:12288   */\n      dup2\n        /* \"#utility.yul\":12277:12280   */\n      dup6\n        /* \"#utility.yul\":12200:12289   */\n      tag_106\n      jump\t// in\n    tag_248:\n        /* \"#utility.yul\":12193:12289   */\n      swap4\n      pop\n        /* \"#utility.yul\":12298:12363   */\n      tag_249\n        /* \"#utility.yul\":12356:12362   */\n      dup2\n        /* \"#utility.yul\":12351:12354   */\n      dup6\n        /* \"#utility.yul\":12344:12348   */\n      0x20\n        /* \"#utility.yul\":12337:12342   */\n      dup7\n        /* \"#utility.yul\":12333:12349   */\n      add\n        /* \"#utility.yul\":12298:12363   */\n      tag_77\n      jump\t// in\n    tag_249:\n        /* \"#utility.yul\":12388:12394   */\n      dup1\n        /* \"#utility.yul\":12383:12386   */\n      dup5\n        /* \"#utility.yul\":12379:12395   */\n      add\n        /* \"#utility.yul\":12372:12395   */\n      swap2\n      pop\n        /* \"#utility.yul\":12121:12401   */\n      pop\n        /* \"#utility.yul\":12011:12401   */\n      swap3\n      swap2\n      pop\n      pop\n      jump\t// out\n        /* \"#utility.yul\":12407:12682   */\n    tag_58:\n        /* \"#utility.yul\":12539:12542   */\n      0x00\n        /* \"#utility.yul\":12561:12656   */\n      tag_251\n        /* \"#utility.yul\":12652:12655   */\n      dup3\n        /* \"#utility.yul\":12643:12649   */\n      dup5\n        /* \"#utility.yul\":12561:12656   */\n      tag_107\n      jump\t// in\n    tag_251:\n        /* \"#utility.yul\":12554:12656   */\n      swap2\n      pop\n        /* \"#utility.yul\":12673:12676   */\n      dup2\n        /* \"#utility.yul\":12666:12676   */\n      swap1\n      pop\n        /* \"#utility.yul\":12407:12682   */\n      swap3\n      swap2\n      pop\n      pop\n      jump\t// out\n\n    auxdata: 0xa2646970667358221220fc735d57b82ee4103a1dcd7466c523e578850977e5f1e4f4229702c38ac7c5c864736f6c634300081e0033\n}\n",
				"bytecode": {
					"linkReferences": {},
					"object": "608060405260015f5f6101000a81548160ff0219169083151502179055507fffffffffffffffffffffffffffffffffffffffffffffffffffffffffffffffa86001556040518060400160405280600b81526020017f6d79206661762069732037000000000000000000000000000000000000000000815250600290816100859190610328565b5073a5c7f43162333963149e5ac357917b37974a41f660035f6101000a81548173ffffffffffffffffffffffffffffffffffffffff021916908373ffffffffffffffffffffffffffffffffffffffff1602179055503480156100e5575f5ffd5b506103f7565b5f81519050919050565b7f4e487b71000000000000000000000000000000000000000000000000000000005f52604160045260245ffd5b7f4e487b71000000000000000000000000000000000000000000000000000000005f52602260045260245ffd5b5f600282049050600182168061016657607f821691505b60208210810361017957610178610122565b5b50919050565b5f819050815f5260205f209050919050565b5f6020601f8301049050919050565b5f82821b905092915050565b5f600883026101db7fffffffffffffffffffffffffffffffffffffffffffffffffffffffffffffffff826101a0565b6101e586836101a0565b95508019841693508086168417925050509392505050565b5f819050919050565b5f819050919050565b5f61022961022461021f846101fd565b610206565b6101fd565b9050919050565b5f819050919050565b6102428361020f565b61025661024e82610230565b8484546101ac565b825550505050565b5f5f905090565b61026d61025e565b610278818484610239565b505050565b5b8181101561029b576102905f82610265565b60018101905061027e565b5050565b601f8211156102e0576102b18161017f565b6102ba84610191565b810160208510156102c9578190505b6102dd6102d585610191565b83018261027d565b50505b505050565b5f82821c905092915050565b5f6103005f19846008026102e5565b1980831691505092915050565b5f61031883836102f1565b9150826002028217905092915050565b610331826100eb565b67ffffffffffffffff81111561034a576103496100f5565b5b610354825461014f565b61035f82828561029f565b5f60209050601f831160018114610390575f841561037e578287015190505b610388858261030d565b8655506103ef565b601f19841661039e8661017f565b5f5b828110156103c5578489015182556001820191506020850194506020810190506103a0565b868310156103e257848901516103de601f8916826102f1565b8355505b6001600288020188555050505b505050505050565b610ab5806104045f395ff3fe608060405234801561000f575f5ffd5b506004361061007b575f3560e01c806369404ebd1161005957806369404ebd146100ec5780636f760f41146101085780638bab8dd5146101245780639e7a13ad146101545761007b565b80632e64cec11461007f57806334c651e11461009d578063471f7cdf146100ce575b5f5ffd5b610087610185565b60405161009491906103da565b60405180910390f35b6100b760048036038101906100b29190610437565b61018e565b6040516100c59291906104e1565b60405180910390f35b6100d661023b565b6040516100e391906103da565b60405180910390f35b61010660048036038101906101019190610437565b610241565b005b610122600480360381019061011d919061063b565b610257565b005b61013e60048036038101906101399190610695565b6102e0565b60405161014b91906106dc565b60405180910390f35b61016e60048036038101906101699190610437565b61030d565b60405161017c9291906104e1565b60405180910390f35b5f600154905090565b6005816003811061019d575f80fd5b600202015f91509050805f0154908060010180546101ba90610722565b80601f01602080910402602001604051908101604052809291908181526020018280546101e690610722565b80156102315780601f1061020857610100808354040283529160200191610231565b820191905f5260205f20905b81548152906001019060200180831161021457829003601f168201915b5050505050905082565b60015481565b60058161024e919061077f565b60018190555050565b5f6040518060400160405280838152602001848152509050600481908060018154018082558091505060019003905f5260205f2090600202015f909190919091505f820151815f015560208201518160010190816102b59190610960565b50505081600b846040516102c99190610a69565b908152602001604051809103902081905550505050565b600b818051602081018201805184825260208301602085012081835280955050505050505f915090505481565b6004818154811061031c575f80fd5b905f5260205f2090600202015f91509050805f01549080600101805461034190610722565b80601f016020809104026020016040519081016040528092919081815260200182805461036d90610722565b80156103b85780601f1061038f576101008083540402835291602001916103b8565b820191905f5260205f20905b81548152906001019060200180831161039b57829003601f168201915b5050505050905082565b5f819050919050565b6103d4816103c2565b82525050565b5f6020820190506103ed5f8301846103cb565b92915050565b5f604051905090565b5f5ffd5b5f5ffd5b5f819050919050565b61041681610404565b8114610420575f5ffd5b50565b5f813590506104318161040d565b92915050565b5f6020828403121561044c5761044b6103fc565b5b5f61045984828501610423565b91505092915050565b61046b81610404565b82525050565b5f81519050919050565b5f82825260208201905092915050565b8281835e5f83830152505050565b5f601f19601f8301169050919050565b5f6104b382610471565b6104bd818561047b565b93506104cd81856020860161048b565b6104d681610499565b840191505092915050565b5f6040820190506104f45f830185610462565b818103602083015261050681846104a9565b90509392505050565b5f5ffd5b5f5ffd5b7f4e487b71000000000000000000000000000000000000000000000000000000005f52604160045260245ffd5b61054d82610499565b810181811067ffffffffffffffff8211171561056c5761056b610517565b5b80604052505050565b5f61057e6103f3565b905061058a8282610544565b919050565b5f67ffffffffffffffff8211156105a9576105a8610517565b5b6105b282610499565b9050602081019050919050565b828183375f83830152505050565b5f6105df6105da8461058f565b610575565b9050828152602081018484840111156105fb576105fa610513565b5b6106068482856105bf565b509392505050565b5f82601f8301126106225761062161050f565b5b81356106328482602086016105cd565b91505092915050565b5f5f60408385031215610651576106506103fc565b5b5f83013567ffffffffffffffff81111561066e5761066d610400565b5b61067a8582860161060e565b925050602061068b85828601610423565b9150509250929050565b5f602082840312156106aa576106a96103fc565b5b5f82013567ffffffffffffffff8111156106c7576106c6610400565b5b6106d38482850161060e565b91505092915050565b5f6020820190506106ef5f830184610462565b92915050565b7f4e487b71000000000000000000000000000000000000000000000000000000005f52602260045260245ffd5b5f600282049050600182168061073957607f821691505b60208210810361074c5761074b6106f5565b5b50919050565b7f4e487b71000000000000000000000000000000000000000000000000000000005f52601160045260245ffd5b5f610789826103c2565b9150610794836103c2565b92508282019050828112155f8312168382125f8412151617156107ba576107b9610752565b5b92915050565b5f819050815f5260205f209050919050565b5f6020601f8301049050919050565b5f82821b905092915050565b5f6008830261081c7fffffffffffffffffffffffffffffffffffffffffffffffffffffffffffffffff826107e1565b61082686836107e1565b95508019841693508086168417925050509392505050565b5f819050919050565b5f61086161085c61085784610404565b61083e565b610404565b9050919050565b5f819050919050565b61087a83610847565b61088e61088682610868565b8484546107ed565b825550505050565b5f5f905090565b6108a5610896565b6108b0818484610871565b505050565b5b818110156108d3576108c85f8261089d565b6001810190506108b6565b5050565b601f821115610918576108e9816107c0565b6108f2846107d2565b81016020851015610901578190505b61091561090d856107d2565b8301826108b5565b50505b505050565b5f82821c905092915050565b5f6109385f198460080261091d565b1980831691505092915050565b5f6109508383610929565b9150826002028217905092915050565b61096982610471565b67ffffffffffffffff81111561098257610981610517565b5b61098c8254610722565b6109978282856108d7565b5f60209050601f8311600181146109c8575f84156109b6578287015190505b6109c08582610945565b865550610a27565b601f1984166109d6866107c0565b5f5b828110156109fd578489015182556001820191506020850194506020810190506109d8565b86831015610a1a5784890151610a16601f891682610929565b8355505b6001600288020188555050505b505050505050565b5f81905092915050565b5f610a4382610471565b610a4d8185610a2f565b9350610a5d81856020860161048b565b80840191505092915050565b5f610a748284610a39565b91508190509291505056fea2646970667358221220fc735d57b82ee4103a1dcd7466c523e578850977e5f1e4f4229702c38ac7c5c864736f6c634300081e0033",
					"opcodes": "PUSH1 0x80 PUSH1 0x40 MSTORE PUSH1 0x1 PUSH0 PUSH0 PUSH2 0x100 EXP DUP2 SLOAD DUP2 PUSH1 0xFF MUL NOT AND SWAP1 DUP4 ISZERO ISZERO MUL OR SWAP1 SSTORE POP PUSH32 0xFFFFFFFFFFFFFFFFFFFFFFFFFFFFFFFFFFFFFFFFFFFFFFFFFFFFFFFFFFFFFFA8 PUSH1 0x1 SSTORE PUSH1 0x40 MLOAD DUP1 PUSH1 0x40 ADD PUSH1 0x40 MSTORE DUP1 PUSH1 0xB DUP2 MSTORE PUSH1 0x20 ADD PUSH32 0x6D79206661762069732037000000000000000000000000000000000000000000 DUP2 MSTORE POP PUSH1 0x2 SWAP1 DUP2 PUSH2 0x85 SWAP2 SWAP1 PUSH2 0x328 JUMP JUMPDEST POP PUSH20 0xA5C7F43162333963149E5AC357917B37974A41F6 PUSH1 0x3 PUSH0 PUSH2 0x100 EXP DUP2 SLOAD DUP2 PUSH20 0xFFFFFFFFFFFFFFFFFFFFFFFFFFFFFFFFFFFFFFFF MUL NOT AND SWAP1 DUP4 PUSH20 0xFFFFFFFFFFFFFFFFFFFFFFFFFFFFFFFFFFFFFFFF AND MUL OR SWAP1 SSTORE POP CALLVALUE DUP1 ISZERO PUSH2 0xE5 JUMPI PUSH0 PUSH0 REVERT JUMPDEST POP PUSH2 0x3F7 JUMP JUMPDEST PUSH0 DUP2 MLOAD SWAP1 POP SWAP2 SWAP1 POP JUMP JUMPDEST PUSH32 0x4E487B7100000000000000000000000000000000000000000000000000000000 PUSH0 MSTORE PUSH1 0x41 PUSH1 0x4 MSTORE PUSH1 0x24 PUSH0 REVERT JUMPDEST PUSH32 0x4E487B7100000000000000000000000000000000000000000000000000000000 PUSH0 MSTORE PUSH1 0x22 PUSH1 0x4 MSTORE PUSH1 0x24 PUSH0 REVERT JUMPDEST PUSH0 PUSH1 0x2 DUP3 DIV SWAP1 POP PUSH1 0x1 DUP3 AND DUP1 PUSH2 0x166 JUMPI PUSH1 0x7F DUP3 AND SWAP2 POP JUMPDEST PUSH1 0x20 DUP3 LT DUP2 SUB PUSH2 0x179 JUMPI PUSH2 0x178 PUSH2 0x122 JUMP JUMPDEST JUMPDEST POP SWAP2 SWAP1 POP JUMP JUMPDEST PUSH0 DUP2 SWAP1 POP DUP2 PUSH0 MSTORE PUSH1 0x20 PUSH0 KECCAK256 SWAP1 POP SWAP2 SWAP1 POP JUMP JUMPDEST PUSH0 PUSH1 0x20 PUSH1 0x1F DUP4 ADD DIV SWAP1 POP SWAP2 SWAP1 POP JUMP JUMPDEST PUSH0 DUP3 DUP3 SHL SWAP1 POP SWAP3 SWAP2 POP POP JUMP JUMPDEST PUSH0 PUSH1 0x8 DUP4 MUL PUSH2 0x1DB PUSH32 0xFFFFFFFFFFFFFFFFFFFFFFFFFFFFFFFFFFFFFFFFFFFFFFFFFFFFFFFFFFFFFFFF DUP3 PUSH2 0x1A0 JUMP JUMPDEST PUSH2 0x1E5 DUP7 DUP4 PUSH2 0x1A0 JUMP JUMPDEST SWAP6 POP DUP1 NOT DUP5 AND SWAP4 POP DUP1 DUP7 AND DUP5 OR SWAP3 POP POP POP SWAP4 SWAP3 POP POP POP JUMP JUMPDEST PUSH0 DUP2 SWAP1 POP SWAP2 SWAP1 POP JUMP JUMPDEST PUSH0 DUP2 SWAP1 POP SWAP2 SWAP1 POP JUMP JUMPDEST PUSH0 PUSH2 0x229 PUSH2 0x224 PUSH2 0x21F DUP5 PUSH2 0x1FD JUMP JUMPDEST PUSH2 0x206 JUMP JUMPDEST PUSH2 0x1FD JUMP JUMPDEST SWAP1 POP SWAP2 SWAP1 POP JUMP JUMPDEST PUSH0 DUP2 SWAP1 POP SWAP2 SWAP1 POP JUMP JUMPDEST PUSH2 0x242 DUP4 PUSH2 0x20F JUMP JUMPDEST PUSH2 0x256 PUSH2 0x24E DUP3 PUSH2 0x230 JUMP JUMPDEST DUP5 DUP5 SLOAD PUSH2 0x1AC JUMP JUMPDEST DUP3 SSTORE POP POP POP POP JUMP JUMPDEST PUSH0 PUSH0 SWAP1 POP SWAP1 JUMP JUMPDEST PUSH2 0x26D PUSH2 0x25E JUMP JUMPDEST PUSH2 0x278 DUP2 DUP5 DUP5 PUSH2 0x239 JUMP JUMPDEST POP POP POP JUMP JUMPDEST JUMPDEST DUP2 DUP2 LT ISZERO PUSH2 0x29B JUMPI PUSH2 0x290 PUSH0 DUP3 PUSH2 0x265 JUMP JUMPDEST PUSH1 0x1 DUP2 ADD SWAP1 POP PUSH2 0x27E JUMP JUMPDEST POP POP JUMP JUMPDEST PUSH1 0x1F DUP3 GT ISZERO PUSH2 0x2E0 JUMPI PUSH2 0x2B1 DUP2 PUSH2 0x17F JUMP JUMPDEST PUSH2 0x2BA DUP5 PUSH2 0x191 JUMP JUMPDEST DUP2 ADD PUSH1 0x20 DUP6 LT ISZERO PUSH2 0x2C9 JUMPI DUP2 SWAP1 POP JUMPDEST PUSH2 0x2DD PUSH2 0x2D5 DUP6 PUSH2 0x191 JUMP JUMPDEST DUP4 ADD DUP3 PUSH2 0x27D JUMP JUMPDEST POP POP JUMPDEST POP POP POP JUMP JUMPDEST PUSH0 DUP3 DUP3 SHR SWAP1 POP SWAP3 SWAP2 POP POP JUMP JUMPDEST PUSH0 PUSH2 0x300 PUSH0 NOT DUP5 PUSH1 0x8 MUL PUSH2 0x2E5 JUMP JUMPDEST NOT DUP1 DUP4 AND SWAP2 POP POP SWAP3 SWAP2 POP POP JUMP JUMPDEST PUSH0 PUSH2 0x318 DUP4 DUP4 PUSH2 0x2F1 JUMP JUMPDEST SWAP2 POP DUP3 PUSH1 0x2 MUL DUP3 OR SWAP1 POP SWAP3 SWAP2 POP POP JUMP JUMPDEST PUSH2 0x331 DUP3 PUSH2 0xEB JUMP JUMPDEST PUSH8 0xFFFFFFFFFFFFFFFF DUP2 GT ISZERO PUSH2 0x34A JUMPI PUSH2 0x349 PUSH2 0xF5 JUMP JUMPDEST JUMPDEST PUSH2 0x354 DUP3 SLOAD PUSH2 0x14F JUMP JUMPDEST PUSH2 0x35F DUP3 DUP3 DUP6 PUSH2 0x29F JUMP JUMPDEST PUSH0 PUSH1 0x20 SWAP1 POP PUSH1 0x1F DUP4 GT PUSH1 0x1 DUP2 EQ PUSH2 0x390 JUMPI PUSH0 DUP5 ISZERO PUSH2 0x37E JUMPI DUP3 DUP8 ADD MLOAD SWAP1 POP JUMPDEST PUSH2 0x388 DUP6 DUP3 PUSH2 0x30D JUMP JUMPDEST DUP7 SSTORE POP PUSH2 0x3EF JUMP JUMPDEST PUSH1 0x1F NOT DUP5 AND PUSH2 0x39E DUP7 PUSH2 0x17F JUMP JUMPDEST PUSH0 JUMPDEST DUP3 DUP2 LT ISZERO PUSH2 0x3C5 JUMPI DUP5 DUP10 ADD MLOAD DUP3 SSTORE PUSH1 0x1 DUP3 ADD SWAP2 POP PUSH1 0x20 DUP6 ADD SWAP5 POP PUSH1 0x20 DUP2 ADD SWAP1 POP PUSH2 0x3A0 JUMP JUMPDEST DUP7 DUP4 LT ISZERO PUSH2 0x3E2 JUMPI DUP5 DUP10 ADD MLOAD PUSH2 0x3DE PUSH1 0x1F DUP10 AND DUP3 PUSH2 0x2F1 JUMP JUMPDEST DUP4 SSTORE POP JUMPDEST PUSH1 0x1 PUSH1 0x2 DUP9 MUL ADD DUP9 SSTORE POP POP POP JUMPDEST POP POP POP POP POP POP JUMP JUMPDEST PUSH2 0xAB5 DUP1 PUSH2 0x404 PUSH0 CODECOPY PUSH0 RETURN INVALID PUSH1 0x80 PUSH1 0x40 MSTORE CALLVALUE DUP1 ISZERO PUSH2 0xF JUMPI PUSH0 PUSH0 REVERT JUMPDEST POP PUSH1 0x4 CALLDATASIZE LT PUSH2 0x7B JUMPI PUSH0 CALLDATALOAD PUSH1 0xE0 SHR DUP1 PUSH4 0x69404EBD GT PUSH2 0x59 JUMPI DUP1 PUSH4 0x69404EBD EQ PUSH2 0xEC JUMPI DUP1 PUSH4 0x6F760F41 EQ PUSH2 0x108 JUMPI DUP1 PUSH4 0x8BAB8DD5 EQ PUSH2 0x124 JUMPI DUP1 PUSH4 0x9E7A13AD EQ PUSH2 0x154 JUMPI PUSH2 0x7B JUMP JUMPDEST DUP1 PUSH4 0x2E64CEC1 EQ PUSH2 0x7F JUMPI DUP1 PUSH4 0x34C651E1 EQ PUSH2 0x9D JUMPI DUP1 PUSH4 0x471F7CDF EQ PUSH2 0xCE JUMPI JUMPDEST PUSH0 PUSH0 REVERT JUMPDEST PUSH2 0x87 PUSH2 0x185 JUMP JUMPDEST PUSH1 0x40 MLOAD PUSH2 0x94 SWAP2 SWAP1 PUSH2 0x3DA JUMP JUMPDEST PUSH1 0x40 MLOAD DUP1 SWAP2 SUB SWAP1 RETURN JUMPDEST PUSH2 0xB7 PUSH1 0x4 DUP1 CALLDATASIZE SUB DUP2 ADD SWAP1 PUSH2 0xB2 SWAP2 SWAP1 PUSH2 0x437 JUMP JUMPDEST PUSH2 0x18E JUMP JUMPDEST PUSH1 0x40 MLOAD PUSH2 0xC5 SWAP3 SWAP2 SWAP1 PUSH2 0x4E1 JUMP JUMPDEST PUSH1 0x40 MLOAD DUP1 SWAP2 SUB SWAP1 RETURN JUMPDEST PUSH2 0xD6 PUSH2 0x23B JUMP JUMPDEST PUSH1 0x40 MLOAD PUSH2 0xE3 SWAP2 SWAP1 PUSH2 0x3DA JUMP JUMPDEST PUSH1 0x40 MLOAD DUP1 SWAP2 SUB SWAP1 RETURN JUMPDEST PUSH2 0x106 PUSH1 0x4 DUP1 CALLDATASIZE SUB DUP2 ADD SWAP1 PUSH2 0x101 SWAP2 SWAP1 PUSH2 0x437 JUMP JUMPDEST PUSH2 0x241 JUMP JUMPDEST STOP JUMPDEST PUSH2 0x122 PUSH1 0x4 DUP1 CALLDATASIZE SUB DUP2 ADD SWAP1 PUSH2 0x11D SWAP2 SWAP1 PUSH2 0x63B JUMP JUMPDEST PUSH2 0x257 JUMP JUMPDEST STOP JUMPDEST PUSH2 0x13E PUSH1 0x4 DUP1 CALLDATASIZE SUB DUP2 ADD SWAP1 PUSH2 0x139 SWAP2 SWAP1 PUSH2 0x695 JUMP JUMPDEST PUSH2 0x2E0 JUMP JUMPDEST PUSH1 0x40 MLOAD PUSH2 0x14B SWAP2 SWAP1 PUSH2 0x6DC JUMP JUMPDEST PUSH1 0x40 MLOAD DUP1 SWAP2 SUB SWAP1 RETURN JUMPDEST PUSH2 0x16E PUSH1 0x4 DUP1 CALLDATASIZE SUB DUP2 ADD SWAP1 PUSH2 0x169 SWAP2 SWAP1 PUSH2 0x437 JUMP JUMPDEST PUSH2 0x30D JUMP JUMPDEST PUSH1 0x40 MLOAD PUSH2 0x17C SWAP3 SWAP2 SWAP1 PUSH2 0x4E1 JUMP JUMPDEST PUSH1 0x40 MLOAD DUP1 SWAP2 SUB SWAP1 RETURN JUMPDEST PUSH0 PUSH1 0x1 SLOAD SWAP1 POP SWAP1 JUMP JUMPDEST PUSH1 0x5 DUP2 PUSH1 0x3 DUP2 LT PUSH2 0x19D JUMPI PUSH0 DUP1 REVERT JUMPDEST PUSH1 0x2 MUL ADD PUSH0 SWAP2 POP SWAP1 POP DUP1 PUSH0 ADD SLOAD SWAP1 DUP1 PUSH1 0x1 ADD DUP1 SLOAD PUSH2 0x1BA SWAP1 PUSH2 0x722 JUMP JUMPDEST DUP1 PUSH1 0x1F ADD PUSH1 0x20 DUP1 SWAP2 DIV MUL PUSH1 0x20 ADD PUSH1 0x40 MLOAD SWAP1 DUP2 ADD PUSH1 0x40 MSTORE DUP1 SWAP3 SWAP2 SWAP1 DUP2 DUP2 MSTORE PUSH1 0x20 ADD DUP3 DUP1 SLOAD PUSH2 0x1E6 SWAP1 PUSH2 0x722 JUMP JUMPDEST DUP1 ISZERO PUSH2 0x231 JUMPI DUP1 PUSH1 0x1F LT PUSH2 0x208 JUMPI PUSH2 0x100 DUP1 DUP4 SLOAD DIV MUL DUP4 MSTORE SWAP2 PUSH1 0x20 ADD SWAP2 PUSH2 0x231 JUMP JUMPDEST DUP3 ADD SWAP2 SWAP1 PUSH0 MSTORE PUSH1 0x20 PUSH0 KECCAK256 SWAP1 JUMPDEST DUP2 SLOAD DUP2 MSTORE SWAP1 PUSH1 0x1 ADD SWAP1 PUSH1 0x20 ADD DUP1 DUP4 GT PUSH2 0x214 JUMPI DUP3 SWAP1 SUB PUSH1 0x1F AND DUP3 ADD SWAP2 JUMPDEST POP POP POP POP POP SWAP1 POP DUP3 JUMP JUMPDEST PUSH1 0x1 SLOAD DUP2 JUMP JUMPDEST PUSH1 0x5 DUP2 PUSH2 0x24E SWAP2 SWAP1 PUSH2 0x77F JUMP JUMPDEST PUSH1 0x1 DUP2 SWAP1 SSTORE POP POP JUMP JUMPDEST PUSH0 PUSH1 0x40 MLOAD DUP1 PUSH1 0x40 ADD PUSH1 0x40 MSTORE DUP1 DUP4 DUP2 MSTORE PUSH1 0x20 ADD DUP5 DUP2 MSTORE POP SWAP1 POP PUSH1 0x4 DUP2 SWAP1 DUP1 PUSH1 0x1 DUP2 SLOAD ADD DUP1 DUP3 SSTORE DUP1 SWAP2 POP POP PUSH1 0x1 SWAP1 SUB SWAP1 PUSH0 MSTORE PUSH1 0x20 PUSH0 KECCAK256 SWAP1 PUSH1 0x2 MUL ADD PUSH0 SWAP1 SWAP2 SWAP1 SWAP2 SWAP1 SWAP2 POP PUSH0 DUP3 ADD MLOAD DUP2 PUSH0 ADD SSTORE PUSH1 0x20 DUP3 ADD MLOAD DUP2 PUSH1 0x1 ADD SWAP1 DUP2 PUSH2 0x2B5 SWAP2 SWAP1 PUSH2 0x960 JUMP JUMPDEST POP POP POP DUP2 PUSH1 0xB DUP5 PUSH1 0x40 MLOAD PUSH2 0x2C9 SWAP2 SWAP1 PUSH2 0xA69 JUMP JUMPDEST SWAP1 DUP2 MSTORE PUSH1 0x20 ADD PUSH1 0x40 MLOAD DUP1 SWAP2 SUB SWAP1 KECCAK256 DUP2 SWAP1 SSTORE POP POP POP POP JUMP JUMPDEST PUSH1 0xB DUP2 DUP1 MLOAD PUSH1 0x20 DUP2 ADD DUP3 ADD DUP1 MLOAD DUP5 DUP3 MSTORE PUSH1 0x20 DUP4 ADD PUSH1 0x20 DUP6 ADD KECCAK256 DUP2 DUP4 MSTORE DUP1 SWAP6 POP POP POP POP POP POP PUSH0 SWAP2 POP SWAP1 POP SLOAD DUP2 JUMP JUMPDEST PUSH1 0x4 DUP2 DUP2 SLOAD DUP2 LT PUSH2 0x31C JUMPI PUSH0 DUP1 REVERT JUMPDEST SWAP1 PUSH0 MSTORE PUSH1 0x20 PUSH0 KECCAK256 SWAP1 PUSH1 0x2 MUL ADD PUSH0 SWAP2 POP SWAP1 POP DUP1 PUSH0 ADD SLOAD SWAP1 DUP1 PUSH1 0x1 ADD DUP1 SLOAD PUSH2 0x341 SWAP1 PUSH2 0x722 JUMP JUMPDEST DUP1 PUSH1 0x1F ADD PUSH1 0x20 DUP1 SWAP2 DIV MUL PUSH1 0x20 ADD PUSH1 0x40 MLOAD SWAP1 DUP2 ADD PUSH1 0x40 MSTORE DUP1 SWAP3 SWAP2 SWAP1 DUP2 DUP2 MSTORE PUSH1 0x20 ADD DUP3 DUP1 SLOAD PUSH2 0x36D SWAP1 PUSH2 0x722 JUMP JUMPDEST DUP1 ISZERO PUSH2 0x3B8 JUMPI DUP1 PUSH1 0x1F LT PUSH2 0x38F JUMPI PUSH2 0x100 DUP1 DUP4 SLOAD DIV MUL DUP4 MSTORE SWAP2 PUSH1 0x20 ADD SWAP2 PUSH2 0x3B8 JUMP JUMPDEST DUP3 ADD SWAP2 SWAP1 PUSH0 MSTORE PUSH1 0x20 PUSH0 KECCAK256 SWAP1 JUMPDEST DUP2 SLOAD DUP2 MSTORE SWAP1 PUSH1 0x1 ADD SWAP1 PUSH1 0x20 ADD DUP1 DUP4 GT PUSH2 0x39B JUMPI DUP3 SWAP1 SUB PUSH1 0x1F AND DUP3 ADD SWAP2 JUMPDEST POP POP POP POP POP SWAP1 POP DUP3 JUMP JUMPDEST PUSH0 DUP2 SWAP1 POP SWAP2 SWAP1 POP JUMP JUMPDEST PUSH2 0x3D4 DUP2 PUSH2 0x3C2 JUMP JUMPDEST DUP3 MSTORE POP POP JUMP JUMPDEST PUSH0 PUSH1 0x20 DUP3 ADD SWAP1 POP PUSH2 0x3ED PUSH0 DUP4 ADD DUP5 PUSH2 0x3CB JUMP JUMPDEST SWAP3 SWAP2 POP POP JUMP JUMPDEST PUSH0 PUSH1 0x40 MLOAD SWAP1 POP SWAP1 JUMP JUMPDEST PUSH0 PUSH0 REVERT JUMPDEST PUSH0 PUSH0 REVERT JUMPDEST PUSH0 DUP2 SWAP1 POP SWAP2 SWAP1 POP JUMP JUMPDEST PUSH2 0x416 DUP2 PUSH2 0x404 JUMP JUMPDEST DUP2 EQ PUSH2 0x420 JUMPI PUSH0 PUSH0 REVERT JUMPDEST POP JUMP JUMPDEST PUSH0 DUP2 CALLDATALOAD SWAP1 POP PUSH2 0x431 DUP2 PUSH2 0x40D JUMP JUMPDEST SWAP3 SWAP2 POP POP JUMP JUMPDEST PUSH0 PUSH1 0x20 DUP3 DUP5 SUB SLT ISZERO PUSH2 0x44C JUMPI PUSH2 0x44B PUSH2 0x3FC JUMP JUMPDEST JUMPDEST PUSH0 PUSH2 0x459 DUP5 DUP3 DUP6 ADD PUSH2 0x423 JUMP JUMPDEST SWAP2 POP POP SWAP3 SWAP2 POP POP JUMP JUMPDEST PUSH2 0x46B DUP2 PUSH2 0x404 JUMP JUMPDEST DUP3 MSTORE POP POP JUMP JUMPDEST PUSH0 DUP2 MLOAD SWAP1 POP SWAP2 SWAP1 POP JUMP JUMPDEST PUSH0 DUP3 DUP3 MSTORE PUSH1 0x20 DUP3 ADD SWAP1 POP SWAP3 SWAP2 POP POP JUMP JUMPDEST DUP3 DUP2 DUP4 MCOPY PUSH0 DUP4 DUP4 ADD MSTORE POP POP POP JUMP JUMPDEST PUSH0 PUSH1 0x1F NOT PUSH1 0x1F DUP4 ADD AND SWAP1 POP SWAP2 SWAP1 POP JUMP JUMPDEST PUSH0 PUSH2 0x4B3 DUP3 PUSH2 0x471 JUMP JUMPDEST PUSH2 0x4BD DUP2 DUP6 PUSH2 0x47B JUMP JUMPDEST SWAP4 POP PUSH2 0x4CD DUP2 DUP6 PUSH1 0x20 DUP7 ADD PUSH2 0x48B JUMP JUMPDEST PUSH2 0x4D6 DUP2 PUSH2 0x499 JUMP JUMPDEST DUP5 ADD SWAP2 POP POP SWAP3 SWAP2 POP POP JUMP JUMPDEST PUSH0 PUSH1 0x40 DUP3 ADD SWAP1 POP PUSH2 0x4F4 PUSH0 DUP4 ADD DUP6 PUSH2 0x462 JUMP JUMPDEST DUP2 DUP2 SUB PUSH1 0x20 DUP4 ADD MSTORE PUSH2 0x506 DUP2 DUP5 PUSH2 0x4A9 JUMP JUMPDEST SWAP1 POP SWAP4 SWAP3 POP POP POP JUMP JUMPDEST PUSH0 PUSH0 REVERT JUMPDEST PUSH0 PUSH0 REVERT JUMPDEST PUSH32 0x4E487B7100000000000000000000000000000000000000000000000000000000 PUSH0 MSTORE PUSH1 0x41 PUSH1 0x4 MSTORE PUSH1 0x24 PUSH0 REVERT JUMPDEST PUSH2 0x54D DUP3 PUSH2 0x499 JUMP JUMPDEST DUP2 ADD DUP2 DUP2 LT PUSH8 0xFFFFFFFFFFFFFFFF DUP3 GT OR ISZERO PUSH2 0x56C JUMPI PUSH2 0x56B PUSH2 0x517 JUMP JUMPDEST JUMPDEST DUP1 PUSH1 0x40 MSTORE POP POP POP JUMP JUMPDEST PUSH0 PUSH2 0x57E PUSH2 0x3F3 JUMP JUMPDEST SWAP1 POP PUSH2 0x58A DUP3 DUP3 PUSH2 0x544 JUMP JUMPDEST SWAP2 SWAP1 POP JUMP JUMPDEST PUSH0 PUSH8 0xFFFFFFFFFFFFFFFF DUP3 GT ISZERO PUSH2 0x5A9 JUMPI PUSH2 0x5A8 PUSH2 0x517 JUMP JUMPDEST JUMPDEST PUSH2 0x5B2 DUP3 PUSH2 0x499 JUMP JUMPDEST SWAP1 POP PUSH1 0x20 DUP2 ADD SWAP1 POP SWAP2 SWAP1 POP JUMP JUMPDEST DUP3 DUP2 DUP4 CALLDATACOPY PUSH0 DUP4 DUP4 ADD MSTORE POP POP POP JUMP JUMPDEST PUSH0 PUSH2 0x5DF PUSH2 0x5DA DUP5 PUSH2 0x58F JUMP JUMPDEST PUSH2 0x575 JUMP JUMPDEST SWAP1 POP DUP3 DUP2 MSTORE PUSH1 0x20 DUP2 ADD DUP5 DUP5 DUP5 ADD GT ISZERO PUSH2 0x5FB JUMPI PUSH2 0x5FA PUSH2 0x513 JUMP JUMPDEST JUMPDEST PUSH2 0x606 DUP5 DUP3 DUP6 PUSH2 0x5BF JUMP JUMPDEST POP SWAP4 SWAP3 POP POP POP JUMP JUMPDEST PUSH0 DUP3 PUSH1 0x1F DUP4 ADD SLT PUSH2 0x622 JUMPI PUSH2 0x621 PUSH2 0x50F JUMP JUMPDEST JUMPDEST DUP2 CALLDATALOAD PUSH2 0x632 DUP5 DUP3 PUSH1 0x20 DUP7 ADD PUSH2 0x5CD JUMP JUMPDEST SWAP2 POP POP SWAP3 SWAP2 POP POP JUMP JUMPDEST PUSH0 PUSH0 PUSH1 0x40 DUP4 DUP6 SUB SLT ISZERO PUSH2 0x651 JUMPI PUSH2 0x650 PUSH2 0x3FC JUMP JUMPDEST JUMPDEST PUSH0 DUP4 ADD CALLDATALOAD PUSH8 0xFFFFFFFFFFFFFFFF DUP2 GT ISZERO PUSH2 0x66E JUMPI PUSH2 0x66D PUSH2 0x400 JUMP JUMPDEST JUMPDEST PUSH2 0x67A DUP6 DUP3 DUP7 ADD PUSH2 0x60E JUMP JUMPDEST SWAP3 POP POP PUSH1 0x20 PUSH2 0x68B DUP6 DUP3 DUP7 ADD PUSH2 0x423 JUMP JUMPDEST SWAP2 POP POP SWAP3 POP SWAP3 SWAP1 POP JUMP JUMPDEST PUSH0 PUSH1 0x20 DUP3 DUP5 SUB SLT ISZERO PUSH2 0x6AA JUMPI PUSH2 0x6A9 PUSH2 0x3FC JUMP JUMPDEST JUMPDEST PUSH0 DUP3 ADD CALLDATALOAD PUSH8 0xFFFFFFFFFFFFFFFF DUP2 GT ISZERO PUSH2 0x6C7 JUMPI PUSH2 0x6C6 PUSH2 0x400 JUMP JUMPDEST JUMPDEST PUSH2 0x6D3 DUP5 DUP3 DUP6 ADD PUSH2 0x60E JUMP JUMPDEST SWAP2 POP POP SWAP3 SWAP2 POP POP JUMP JUMPDEST PUSH0 PUSH1 0x20 DUP3 ADD SWAP1 POP PUSH2 0x6EF PUSH0 DUP4 ADD DUP5 PUSH2 0x462 JUMP JUMPDEST SWAP3 SWAP2 POP POP JUMP JUMPDEST PUSH32 0x4E487B7100000000000000000000000000000000000000000000000000000000 PUSH0 MSTORE PUSH1 0x22 PUSH1 0x4 MSTORE PUSH1 0x24 PUSH0 REVERT JUMPDEST PUSH0 PUSH1 0x2 DUP3 DIV SWAP1 POP PUSH1 0x1 DUP3 AND DUP1 PUSH2 0x739 JUMPI PUSH1 0x7F DUP3 AND SWAP2 POP JUMPDEST PUSH1 0x20 DUP3 LT DUP2 SUB PUSH2 0x74C JUMPI PUSH2 0x74B PUSH2 0x6F5 JUMP JUMPDEST JUMPDEST POP SWAP2 SWAP1 POP JUMP JUMPDEST PUSH32 0x4E487B7100000000000000000000000000000000000000000000000000000000 PUSH0 MSTORE PUSH1 0x11 PUSH1 0x4 MSTORE PUSH1 0x24 PUSH0 REVERT JUMPDEST PUSH0 PUSH2 0x789 DUP3 PUSH2 0x3C2 JUMP JUMPDEST SWAP2 POP PUSH2 0x794 DUP4 PUSH2 0x3C2 JUMP JUMPDEST SWAP3 POP DUP3 DUP3 ADD SWAP1 POP DUP3 DUP2 SLT ISZERO PUSH0 DUP4 SLT AND DUP4 DUP3 SLT PUSH0 DUP5 SLT ISZERO AND OR ISZERO PUSH2 0x7BA JUMPI PUSH2 0x7B9 PUSH2 0x752 JUMP JUMPDEST JUMPDEST SWAP3 SWAP2 POP POP JUMP JUMPDEST PUSH0 DUP2 SWAP1 POP DUP2 PUSH0 MSTORE PUSH1 0x20 PUSH0 KECCAK256 SWAP1 POP SWAP2 SWAP1 POP JUMP JUMPDEST PUSH0 PUSH1 0x20 PUSH1 0x1F DUP4 ADD DIV SWAP1 POP SWAP2 SWAP1 POP JUMP JUMPDEST PUSH0 DUP3 DUP3 SHL SWAP1 POP SWAP3 SWAP2 POP POP JUMP JUMPDEST PUSH0 PUSH1 0x8 DUP4 MUL PUSH2 0x81C PUSH32 0xFFFFFFFFFFFFFFFFFFFFFFFFFFFFFFFFFFFFFFFFFFFFFFFFFFFFFFFFFFFFFFFF DUP3 PUSH2 0x7E1 JUMP JUMPDEST PUSH2 0x826 DUP7 DUP4 PUSH2 0x7E1 JUMP JUMPDEST SWAP6 POP DUP1 NOT DUP5 AND SWAP4 POP DUP1 DUP7 AND DUP5 OR SWAP3 POP POP POP SWAP4 SWAP3 POP POP POP JUMP JUMPDEST PUSH0 DUP2 SWAP1 POP SWAP2 SWAP1 POP JUMP JUMPDEST PUSH0 PUSH2 0x861 PUSH2 0x85C PUSH2 0x857 DUP5 PUSH2 0x404 JUMP JUMPDEST PUSH2 0x83E JUMP JUMPDEST PUSH2 0x404 JUMP JUMPDEST SWAP1 POP SWAP2 SWAP1 POP JUMP JUMPDEST PUSH0 DUP2 SWAP1 POP SWAP2 SWAP1 POP JUMP JUMPDEST PUSH2 0x87A DUP4 PUSH2 0x847 JUMP JUMPDEST PUSH2 0x88E PUSH2 0x886 DUP3 PUSH2 0x868 JUMP JUMPDEST DUP5 DUP5 SLOAD PUSH2 0x7ED JUMP JUMPDEST DUP3 SSTORE POP POP POP POP JUMP JUMPDEST PUSH0 PUSH0 SWAP1 POP SWAP1 JUMP JUMPDEST PUSH2 0x8A5 PUSH2 0x896 JUMP JUMPDEST PUSH2 0x8B0 DUP2 DUP5 DUP5 PUSH2 0x871 JUMP JUMPDEST POP POP POP JUMP JUMPDEST JUMPDEST DUP2 DUP2 LT ISZERO PUSH2 0x8D3 JUMPI PUSH2 0x8C8 PUSH0 DUP3 PUSH2 0x89D JUMP JUMPDEST PUSH1 0x1 DUP2 ADD SWAP1 POP PUSH2 0x8B6 JUMP JUMPDEST POP POP JUMP JUMPDEST PUSH1 0x1F DUP3 GT ISZERO PUSH2 0x918 JUMPI PUSH2 0x8E9 DUP2 PUSH2 0x7C0 JUMP JUMPDEST PUSH2 0x8F2 DUP5 PUSH2 0x7D2 JUMP JUMPDEST DUP2 ADD PUSH1 0x20 DUP6 LT ISZERO PUSH2 0x901 JUMPI DUP2 SWAP1 POP JUMPDEST PUSH2 0x915 PUSH2 0x90D DUP6 PUSH2 0x7D2 JUMP JUMPDEST DUP4 ADD DUP3 PUSH2 0x8B5 JUMP JUMPDEST POP POP JUMPDEST POP POP POP JUMP JUMPDEST PUSH0 DUP3 DUP3 SHR SWAP1 POP SWAP3 SWAP2 POP POP JUMP JUMPDEST PUSH0 PUSH2 0x938 PUSH0 NOT DUP5 PUSH1 0x8 MUL PUSH2 0x91D JUMP JUMPDEST NOT DUP1 DUP4 AND SWAP2 POP POP SWAP3 SWAP2 POP POP JUMP JUMPDEST PUSH0 PUSH2 0x950 DUP4 DUP4 PUSH2 0x929 JUMP JUMPDEST SWAP2 POP DUP3 PUSH1 0x2 MUL DUP3 OR SWAP1 POP SWAP3 SWAP2 POP POP JUMP JUMPDEST PUSH2 0x969 DUP3 PUSH2 0x471 JUMP JUMPDEST PUSH8 0xFFFFFFFFFFFFFFFF DUP2 GT ISZERO PUSH2 0x982 JUMPI PUSH2 0x981 PUSH2 0x517 JUMP JUMPDEST JUMPDEST PUSH2 0x98C DUP3 SLOAD PUSH2 0x722 JUMP JUMPDEST PUSH2 0x997 DUP3 DUP3 DUP6 PUSH2 0x8D7 JUMP JUMPDEST PUSH0 PUSH1 0x20 SWAP1 POP PUSH1 0x1F DUP4 GT PUSH1 0x1 DUP2 EQ PUSH2 0x9C8 JUMPI PUSH0 DUP5 ISZERO PUSH2 0x9B6 JUMPI DUP3 DUP8 ADD MLOAD SWAP1 POP JUMPDEST PUSH2 0x9C0 DUP6 DUP3 PUSH2 0x945 JUMP JUMPDEST DUP7 SSTORE POP PUSH2 0xA27 JUMP JUMPDEST PUSH1 0x1F NOT DUP5 AND PUSH2 0x9D6 DUP7 PUSH2 0x7C0 JUMP JUMPDEST PUSH0 JUMPDEST DUP3 DUP2 LT ISZERO PUSH2 0x9FD JUMPI DUP5 DUP10 ADD MLOAD DUP3 SSTORE PUSH1 0x1 DUP3 ADD SWAP2 POP PUSH1 0x20 DUP6 ADD SWAP5 POP PUSH1 0x20 DUP2 ADD SWAP1 POP PUSH2 0x9D8 JUMP JUMPDEST DUP7 DUP4 LT ISZERO PUSH2 0xA1A JUMPI DUP5 DUP10 ADD MLOAD PUSH2 0xA16 PUSH1 0x1F DUP10 AND DUP3 PUSH2 0x929 JUMP JUMPDEST DUP4 SSTORE POP JUMPDEST PUSH1 0x1 PUSH1 0x2 DUP9 MUL ADD DUP9 SSTORE POP POP POP JUMPDEST POP POP POP POP POP POP JUMP JUMPDEST PUSH0 DUP2 SWAP1 POP SWAP3 SWAP2 POP POP JUMP JUMPDEST PUSH0 PUSH2 0xA43 DUP3 PUSH2 0x471 JUMP JUMPDEST PUSH2 0xA4D DUP2 DUP6 PUSH2 0xA2F JUMP JUMPDEST SWAP4 POP PUSH2 0xA5D DUP2 DUP6 PUSH1 0x20 DUP7 ADD PUSH2 0x48B JUMP JUMPDEST DUP1 DUP5 ADD SWAP2 POP POP SWAP3 SWAP2 POP POP JUMP JUMPDEST PUSH0 PUSH2 0xA74 DUP3 DUP5 PUSH2 0xA39 JUMP JUMPDEST SWAP2 POP DUP2 SWAP1 POP SWAP3 SWAP2 POP POP JUMP INVALID LOG2 PUSH5 0x6970667358 0x22 SLT KECCAK256 0xFC PUSH20 0x5D57B82EE4103A1DCD7466C523E578850977E5F1 RETF DELEGATECALL 0x22 SWAP8 MUL 0xC3 DUP11 0xC7 0xC5 0xC8 PUSH5 0x736F6C6343 STOP ADDMOD 0x1E STOP CALLER "
				},
				"gasEstimates": {
					"creation": {
						"codeDepositCost": "548200",
						"executionCost": "infinite",
						"totalCost": "infinite"
					},
					"external": {
						"Store(uint256)": "infinite",
						"addPerson(string,uint256)": "infinite",
						"favoriteNumber()": "2470",
						"limitedPeople(uint256)": "infinite",
						"nameToFavoriteNumber(string)": "infinite",
						"people(uint256)": "infinite",
						"retrieve()": "2433"
					}
				},
				"methodIdentifiers": {
					"Store(uint256)": "69404ebd",
					"addPerson(string,uint256)": "6f760f41",
					"favoriteNumber()": "471f7cdf",
					"limitedPeople(uint256)": "34c651e1",
					"nameToFavoriteNumber(string)": "8bab8dd5",
					"people(uint256)": "9e7a13ad",
					"retrieve()": "2e64cec1"
				}
			},
			"storageLayout": {
				"storage": [
					{
						"astId": 27,
						"contract": "Addfive.sol:addFive",
						"label": "hasFavoriteNumber",
						"offset": 0,
						"slot": "0",
						"type": "t_bool"
					},
					{
						"astId": 31,
						"contract": "Addfive.sol:addFive",
						"label": "favoriteNumber",
						"offset": 0,
						"slot": "1",
						"type": "t_int256"
					},
					{
						"astId": 34,
						"contract": "Addfive.sol:addFive",
						"label": "FavoriteNumberInTest",
						"offset": 0,
						"slot": "2",
						"type": "t_string_storage"
					},
					{
						"astId": 37,
						"contract": "Addfive.sol:addFive",
						"label": "myAddress",
						"offset": 0,
						"slot": "3",
						"type": "t_address"
					},
					{
						"astId": 67,
						"contract": "Addfive.sol:addFive",
						"label": "people",
						"offset": 0,
						"slot": "4",
						"type": "t_array(t_struct(Person)63_storage)dyn_storage"
					},
					{
						"astId": 72,
						"contract": "Addfive.sol:addFive",
						"label": "limitedPeople",
						"offset": 0,
						"slot": "5",
						"type": "t_array(t_struct(Person)63_storage)3_storage"
					},
					{
						"astId": 76,
						"contract": "Addfive.sol:addFive",
						"label": "nameToFavoriteNumber",
						"offset": 0,
						"slot": "11",
						"type": "t_mapping(t_string_memory_ptr,t_uint256)"
					}
				],
				"types": {
					"t_address": {
						"encoding": "inplace",
						"label": "address",
						"numberOfBytes": "20"
					},
					"t_array(t_struct(Person)63_storage)3_storage": {
						"base": "t_struct(Person)63_storage",
						"encoding": "inplace",
						"label": "struct SimpleStorage.Person[3]",
						"numberOfBytes": "192"
					},
					"t_array(t_struct(Person)63_storage)dyn_storage": {
						"base": "t_struct(Person)63_storage",
						"encoding": "dynamic_array",
						"label": "struct SimpleStorage.Person[]",
						"numberOfBytes": "32"
					},
					"t_bool": {
						"encoding": "inplace",
						"label": "bool",
						"numberOfBytes": "1"
					},
					"t_int256": {
						"encoding": "inplace",
						"label": "int256",
						"numberOfBytes": "32"
					},
					"t_mapping(t_string_memory_ptr,t_uint256)": {
						"encoding": "mapping",
						"key": "t_string_memory_ptr",
						"label": "mapping(string => uint256)",
						"numberOfBytes": "32",
						"value": "t_uint256"
					},
					"t_string_memory_ptr": {
						"encoding": "bytes",
						"label": "string",
						"numberOfBytes": "32"
					},
					"t_string_storage": {
						"encoding": "bytes",
						"label": "string",
						"numberOfBytes": "32"
					},
					"t_struct(Person)63_storage": {
						"encoding": "inplace",
						"label": "struct SimpleStorage.Person",
						"members": [
							{
								"astId": 60,
								"contract": "Addfive.sol:addFive",
								"label": "favoriteNumber",
								"offset": 0,
								"slot": "0",
								"type": "t_uint256"
							},
							{
								"astId": 62,
								"contract": "Addfive.sol:addFive",
								"label": "name",
								"offset": 0,
								"slot": "1",
								"type": "t_string_storage"
							}
						],
						"numberOfBytes": "64"
					},
					"t_uint256": {
						"encoding": "inplace",
						"label": "uint256",
						"numberOfBytes": "32"
					}
				}
			},
			"userdoc": {
				"kind": "user",
				"methods": {},
				"version": 1
			}
		}
	}
}